{
	"data": {
		"bytecode": {
			"linkReferences": {},
			"object": "608060405234801561001057600080fd5b50610fe3806100206000396000f3fe6080604052600436106100345760003560e01c80638642269e14610039578063b9db15b414610069578063f08a81a6146100aa575b600080fd5b610053600480360381019061004e919061076e565b6100d3565b60405161006091906107b6565b60405180910390f35b34801561007557600080fd5b50610090600480360381019061008b919061076e565b61027c565b6040516100a1959493929190610870565b60405180910390f35b3480156100b657600080fd5b506100d160048036038101906100cc9190610a6b565b61051d565b005b60008060008381526020019081526020016000206000815481106100fa576100f9610b4c565b5b9060005260206000209060070201600001547fa530f889d7f1bd9a73028e48944ca013ab2c6624a31e3fa26f923f4bb719abd53360008086815260200190815260200160002060008154811061015357610152610b4c565b5b906000526020600020906007020160030154604051610173929190610b9c565b60405180910390a260008060008481526020019081526020016000206000815481106101a2576101a1610b4c565b5b906000526020600020906007020160060160009054906101000a900473ffffffffffffffffffffffffffffffffffffffff1673ffffffffffffffffffffffffffffffffffffffff1660008085815260200190815260200160002060008154811061020f5761020e610b4c565b5b90600052602060002090600702016003015460405161022d90610bf6565b60006040518083038185875af1925050503d806000811461026a576040519150601f19603f3d011682016040523d82523d6000602084013e61026f565b606091505b5050905080915050919050565b600080606080606060008060008881526020019081526020016000206000815481106102ab576102aa610b4c565b5b90600052602060002090600702016040518060e0016040529081600082015481526020016001820180546102de90610c3a565b80601f016020809104026020016040519081016040528092919081815260200182805461030a90610c3a565b80156103575780601f1061032c57610100808354040283529160200191610357565b820191906000526020600020905b81548152906001019060200180831161033a57829003601f168201915b50505050508152602001600282015481526020016003820154815260200160048201805461038490610c3a565b80601f01602080910402602001604051908101604052809291908181526020018280546103b090610c3a565b80156103fd5780601f106103d2576101008083540402835291602001916103fd565b820191906000526020600020905b8154815290600101906020018083116103e057829003601f168201915b5050505050815260200160058201805461041690610c3a565b80601f016020809104026020016040519081016040528092919081815260200182805461044290610c3a565b801561048f5780601f106104645761010080835404028352916020019161048f565b820191906000526020600020905b81548152906001019060200180831161047257829003601f168201915b505050505081526020016006820160009054906101000a900473ffffffffffffffffffffffffffffffffffffffff1673ffffffffffffffffffffffffffffffffffffffff1673ffffffffffffffffffffffffffffffffffffffff1681525050905080600001518160600151826080015183602001518460a00151955095509550955095505091939590929450565b6105256106d1565b868160000181815250508581602001819052508481604001818152505067016345785d8a0000816060018181525050838160800181905250828160a00181905250818160c0019073ffffffffffffffffffffffffffffffffffffffff16908173ffffffffffffffffffffffffffffffffffffffff16815250506000808881526020019081526020016000208190806001815401808255809150506001900390600052602060002090600702016000909190919091506000820151816000015560208201518160010190816105f99190610e17565b50604082015181600201556060820151816003015560808201518160040190816106239190610e17565b5060a08201518160050190816106399190610e17565b5060c08201518160060160006101000a81548173ffffffffffffffffffffffffffffffffffffffff021916908373ffffffffffffffffffffffffffffffffffffffff16021790555050507f1b9f0b183eb697d11c245eb8b7f8ae297d0f82477ce0321b6bda5332909eb24e878683606001518988876040516106c096959493929190610f3e565b60405180910390a150505050505050565b6040518060e00160405280600081526020016060815260200160008152602001600081526020016060815260200160608152602001600073ffffffffffffffffffffffffffffffffffffffff1681525090565b6000604051905090565b600080fd5b600080fd5b6000819050919050565b61074b81610738565b811461075657600080fd5b50565b60008135905061076881610742565b92915050565b6000602082840312156107845761078361072e565b5b600061079284828501610759565b91505092915050565b60008115159050919050565b6107b08161079b565b82525050565b60006020820190506107cb60008301846107a7565b92915050565b6107da81610738565b82525050565b600081519050919050565b600082825260208201905092915050565b60005b8381101561081a5780820151818401526020810190506107ff565b60008484015250505050565b6000601f19601f8301169050919050565b6000610842826107e0565b61084c81856107eb565b935061085c8185602086016107fc565b61086581610826565b840191505092915050565b600060a08201905061088560008301886107d1565b61089260208301876107d1565b81810360408301526108a48186610837565b905081810360608301526108b88185610837565b905081810360808301526108cc8184610837565b90509695505050505050565b600080fd5b600080fd5b7f4e487b7100000000000000000000000000000000000000000000000000000000600052604160045260246000fd5b61091a82610826565b810181811067ffffffffffffffff82111715610939576109386108e2565b5b80604052505050565b600061094c610724565b90506109588282610911565b919050565b600067ffffffffffffffff821115610978576109776108e2565b5b61098182610826565b9050602081019050919050565b82818337600083830152505050565b60006109b06109ab8461095d565b610942565b9050828152602081018484840111156109cc576109cb6108dd565b5b6109d784828561098e565b509392505050565b600082601f8301126109f4576109f36108d8565b5b8135610a0484826020860161099d565b91505092915050565b600073ffffffffffffffffffffffffffffffffffffffff82169050919050565b6000610a3882610a0d565b9050919050565b610a4881610a2d565b8114610a5357600080fd5b50565b600081359050610a6581610a3f565b92915050565b60008060008060008060c08789031215610a8857610a8761072e565b5b6000610a9689828a01610759565b965050602087013567ffffffffffffffff811115610ab757610ab6610733565b5b610ac389828a016109df565b9550506040610ad489828a01610759565b945050606087013567ffffffffffffffff811115610af557610af4610733565b5b610b0189828a016109df565b935050608087013567ffffffffffffffff811115610b2257610b21610733565b5b610b2e89828a016109df565b92505060a0610b3f89828a01610a56565b9150509295509295509295565b7f4e487b7100000000000000000000000000000000000000000000000000000000600052603260045260246000fd5b6000610b8682610a0d565b9050919050565b610b9681610b7b565b82525050565b6000604082019050610bb16000830185610b8d565b610bbe60208301846107d1565b9392505050565b600081905092915050565b50565b6000610be0600083610bc5565b9150610beb82610bd0565b600082019050919050565b6000610c0182610bd3565b9150819050919050565b7f4e487b7100000000000000000000000000000000000000000000000000000000600052602260045260246000fd5b60006002820490506001821680610c5257607f821691505b602082108103610c6557610c64610c0b565b5b50919050565b60008190508160005260206000209050919050565b60006020601f8301049050919050565b600082821b905092915050565b600060088302610ccd7fffffffffffffffffffffffffffffffffffffffffffffffffffffffffffffffff82610c90565b610cd78683610c90565b95508019841693508086168417925050509392505050565b6000819050919050565b6000610d14610d0f610d0a84610738565b610cef565b610738565b9050919050565b6000819050919050565b610d2e83610cf9565b610d42610d3a82610d1b565b848454610c9d565b825550505050565b600090565b610d57610d4a565b610d62818484610d25565b505050565b5b81811015610d8657610d7b600082610d4f565b600181019050610d68565b5050565b601f821115610dcb57610d9c81610c6b565b610da584610c80565b81016020851015610db4578190505b610dc8610dc085610c80565b830182610d67565b50505b505050565b600082821c905092915050565b6000610dee60001984600802610dd0565b1980831691505092915050565b6000610e078383610ddd565b9150826002028217905092915050565b610e20826107e0565b67ffffffffffffffff811115610e3957610e386108e2565b5b610e438254610c3a565b610e4e828285610d8a565b600060209050601f831160018114610e815760008415610e6f578287015190505b610e798582610dfb565b865550610ee1565b601f198416610e8f86610c6b565b60005b82811015610eb757848901518255600182019150602085019450602081019050610e92565b86831015610ed45784890151610ed0601f891682610ddd565b8355505b6001600288020188555050505b505050505050565b6000610f04610eff610efa84610a0d565b610cef565b610a0d565b9050919050565b6000610f1682610ee9565b9050919050565b6000610f2882610f0b565b9050919050565b610f3881610f1d565b82525050565b600060c082019050610f5360008301896107d1565b610f6060208301886107d1565b610f6d60408301876107d1565b8181036060830152610f7f8186610837565b90508181036080830152610f938185610837565b9050610fa260a0830184610f2f565b97965050505050505056fea2646970667358221220d646b7e3876b2d4a65b1aec6e0ef24c0c14e2f4f7bae3b4097049da118b8e77964736f6c63430008120033",
			"opcodes": "PUSH1 0x80 PUSH1 0x40 MSTORE CALLVALUE DUP1 ISZERO PUSH2 0x10 JUMPI PUSH1 0x0 DUP1 REVERT JUMPDEST POP PUSH2 0xFE3 DUP1 PUSH2 0x20 PUSH1 0x0 CODECOPY PUSH1 0x0 RETURN INVALID PUSH1 0x80 PUSH1 0x40 MSTORE PUSH1 0x4 CALLDATASIZE LT PUSH2 0x34 JUMPI PUSH1 0x0 CALLDATALOAD PUSH1 0xE0 SHR DUP1 PUSH4 0x8642269E EQ PUSH2 0x39 JUMPI DUP1 PUSH4 0xB9DB15B4 EQ PUSH2 0x69 JUMPI DUP1 PUSH4 0xF08A81A6 EQ PUSH2 0xAA JUMPI JUMPDEST PUSH1 0x0 DUP1 REVERT JUMPDEST PUSH2 0x53 PUSH1 0x4 DUP1 CALLDATASIZE SUB DUP2 ADD SWAP1 PUSH2 0x4E SWAP2 SWAP1 PUSH2 0x76E JUMP JUMPDEST PUSH2 0xD3 JUMP JUMPDEST PUSH1 0x40 MLOAD PUSH2 0x60 SWAP2 SWAP1 PUSH2 0x7B6 JUMP JUMPDEST PUSH1 0x40 MLOAD DUP1 SWAP2 SUB SWAP1 RETURN JUMPDEST CALLVALUE DUP1 ISZERO PUSH2 0x75 JUMPI PUSH1 0x0 DUP1 REVERT JUMPDEST POP PUSH2 0x90 PUSH1 0x4 DUP1 CALLDATASIZE SUB DUP2 ADD SWAP1 PUSH2 0x8B SWAP2 SWAP1 PUSH2 0x76E JUMP JUMPDEST PUSH2 0x27C JUMP JUMPDEST PUSH1 0x40 MLOAD PUSH2 0xA1 SWAP6 SWAP5 SWAP4 SWAP3 SWAP2 SWAP1 PUSH2 0x870 JUMP JUMPDEST PUSH1 0x40 MLOAD DUP1 SWAP2 SUB SWAP1 RETURN JUMPDEST CALLVALUE DUP1 ISZERO PUSH2 0xB6 JUMPI PUSH1 0x0 DUP1 REVERT JUMPDEST POP PUSH2 0xD1 PUSH1 0x4 DUP1 CALLDATASIZE SUB DUP2 ADD SWAP1 PUSH2 0xCC SWAP2 SWAP1 PUSH2 0xA6B JUMP JUMPDEST PUSH2 0x51D JUMP JUMPDEST STOP JUMPDEST PUSH1 0x0 DUP1 PUSH1 0x0 DUP4 DUP2 MSTORE PUSH1 0x20 ADD SWAP1 DUP2 MSTORE PUSH1 0x20 ADD PUSH1 0x0 KECCAK256 PUSH1 0x0 DUP2 SLOAD DUP2 LT PUSH2 0xFA JUMPI PUSH2 0xF9 PUSH2 0xB4C JUMP JUMPDEST JUMPDEST SWAP1 PUSH1 0x0 MSTORE PUSH1 0x20 PUSH1 0x0 KECCAK256 SWAP1 PUSH1 0x7 MUL ADD PUSH1 0x0 ADD SLOAD PUSH32 0xA530F889D7F1BD9A73028E48944CA013AB2C6624A31E3FA26F923F4BB719ABD5 CALLER PUSH1 0x0 DUP1 DUP7 DUP2 MSTORE PUSH1 0x20 ADD SWAP1 DUP2 MSTORE PUSH1 0x20 ADD PUSH1 0x0 KECCAK256 PUSH1 0x0 DUP2 SLOAD DUP2 LT PUSH2 0x153 JUMPI PUSH2 0x152 PUSH2 0xB4C JUMP JUMPDEST JUMPDEST SWAP1 PUSH1 0x0 MSTORE PUSH1 0x20 PUSH1 0x0 KECCAK256 SWAP1 PUSH1 0x7 MUL ADD PUSH1 0x3 ADD SLOAD PUSH1 0x40 MLOAD PUSH2 0x173 SWAP3 SWAP2 SWAP1 PUSH2 0xB9C JUMP JUMPDEST PUSH1 0x40 MLOAD DUP1 SWAP2 SUB SWAP1 LOG2 PUSH1 0x0 DUP1 PUSH1 0x0 DUP5 DUP2 MSTORE PUSH1 0x20 ADD SWAP1 DUP2 MSTORE PUSH1 0x20 ADD PUSH1 0x0 KECCAK256 PUSH1 0x0 DUP2 SLOAD DUP2 LT PUSH2 0x1A2 JUMPI PUSH2 0x1A1 PUSH2 0xB4C JUMP JUMPDEST JUMPDEST SWAP1 PUSH1 0x0 MSTORE PUSH1 0x20 PUSH1 0x0 KECCAK256 SWAP1 PUSH1 0x7 MUL ADD PUSH1 0x6 ADD PUSH1 0x0 SWAP1 SLOAD SWAP1 PUSH2 0x100 EXP SWAP1 DIV PUSH20 0xFFFFFFFFFFFFFFFFFFFFFFFFFFFFFFFFFFFFFFFF AND PUSH20 0xFFFFFFFFFFFFFFFFFFFFFFFFFFFFFFFFFFFFFFFF AND PUSH1 0x0 DUP1 DUP6 DUP2 MSTORE PUSH1 0x20 ADD SWAP1 DUP2 MSTORE PUSH1 0x20 ADD PUSH1 0x0 KECCAK256 PUSH1 0x0 DUP2 SLOAD DUP2 LT PUSH2 0x20F JUMPI PUSH2 0x20E PUSH2 0xB4C JUMP JUMPDEST JUMPDEST SWAP1 PUSH1 0x0 MSTORE PUSH1 0x20 PUSH1 0x0 KECCAK256 SWAP1 PUSH1 0x7 MUL ADD PUSH1 0x3 ADD SLOAD PUSH1 0x40 MLOAD PUSH2 0x22D SWAP1 PUSH2 0xBF6 JUMP JUMPDEST PUSH1 0x0 PUSH1 0x40 MLOAD DUP1 DUP4 SUB DUP2 DUP6 DUP8 GAS CALL SWAP3 POP POP POP RETURNDATASIZE DUP1 PUSH1 0x0 DUP2 EQ PUSH2 0x26A JUMPI PUSH1 0x40 MLOAD SWAP2 POP PUSH1 0x1F NOT PUSH1 0x3F RETURNDATASIZE ADD AND DUP3 ADD PUSH1 0x40 MSTORE RETURNDATASIZE DUP3 MSTORE RETURNDATASIZE PUSH1 0x0 PUSH1 0x20 DUP5 ADD RETURNDATACOPY PUSH2 0x26F JUMP JUMPDEST PUSH1 0x60 SWAP2 POP JUMPDEST POP POP SWAP1 POP DUP1 SWAP2 POP POP SWAP2 SWAP1 POP JUMP JUMPDEST PUSH1 0x0 DUP1 PUSH1 0x60 DUP1 PUSH1 0x60 PUSH1 0x0 DUP1 PUSH1 0x0 DUP9 DUP2 MSTORE PUSH1 0x20 ADD SWAP1 DUP2 MSTORE PUSH1 0x20 ADD PUSH1 0x0 KECCAK256 PUSH1 0x0 DUP2 SLOAD DUP2 LT PUSH2 0x2AB JUMPI PUSH2 0x2AA PUSH2 0xB4C JUMP JUMPDEST JUMPDEST SWAP1 PUSH1 0x0 MSTORE PUSH1 0x20 PUSH1 0x0 KECCAK256 SWAP1 PUSH1 0x7 MUL ADD PUSH1 0x40 MLOAD DUP1 PUSH1 0xE0 ADD PUSH1 0x40 MSTORE SWAP1 DUP2 PUSH1 0x0 DUP3 ADD SLOAD DUP2 MSTORE PUSH1 0x20 ADD PUSH1 0x1 DUP3 ADD DUP1 SLOAD PUSH2 0x2DE SWAP1 PUSH2 0xC3A JUMP JUMPDEST DUP1 PUSH1 0x1F ADD PUSH1 0x20 DUP1 SWAP2 DIV MUL PUSH1 0x20 ADD PUSH1 0x40 MLOAD SWAP1 DUP2 ADD PUSH1 0x40 MSTORE DUP1 SWAP3 SWAP2 SWAP1 DUP2 DUP2 MSTORE PUSH1 0x20 ADD DUP3 DUP1 SLOAD PUSH2 0x30A SWAP1 PUSH2 0xC3A JUMP JUMPDEST DUP1 ISZERO PUSH2 0x357 JUMPI DUP1 PUSH1 0x1F LT PUSH2 0x32C JUMPI PUSH2 0x100 DUP1 DUP4 SLOAD DIV MUL DUP4 MSTORE SWAP2 PUSH1 0x20 ADD SWAP2 PUSH2 0x357 JUMP JUMPDEST DUP3 ADD SWAP2 SWAP1 PUSH1 0x0 MSTORE PUSH1 0x20 PUSH1 0x0 KECCAK256 SWAP1 JUMPDEST DUP2 SLOAD DUP2 MSTORE SWAP1 PUSH1 0x1 ADD SWAP1 PUSH1 0x20 ADD DUP1 DUP4 GT PUSH2 0x33A JUMPI DUP3 SWAP1 SUB PUSH1 0x1F AND DUP3 ADD SWAP2 JUMPDEST POP POP POP POP POP DUP2 MSTORE PUSH1 0x20 ADD PUSH1 0x2 DUP3 ADD SLOAD DUP2 MSTORE PUSH1 0x20 ADD PUSH1 0x3 DUP3 ADD SLOAD DUP2 MSTORE PUSH1 0x20 ADD PUSH1 0x4 DUP3 ADD DUP1 SLOAD PUSH2 0x384 SWAP1 PUSH2 0xC3A JUMP JUMPDEST DUP1 PUSH1 0x1F ADD PUSH1 0x20 DUP1 SWAP2 DIV MUL PUSH1 0x20 ADD PUSH1 0x40 MLOAD SWAP1 DUP2 ADD PUSH1 0x40 MSTORE DUP1 SWAP3 SWAP2 SWAP1 DUP2 DUP2 MSTORE PUSH1 0x20 ADD DUP3 DUP1 SLOAD PUSH2 0x3B0 SWAP1 PUSH2 0xC3A JUMP JUMPDEST DUP1 ISZERO PUSH2 0x3FD JUMPI DUP1 PUSH1 0x1F LT PUSH2 0x3D2 JUMPI PUSH2 0x100 DUP1 DUP4 SLOAD DIV MUL DUP4 MSTORE SWAP2 PUSH1 0x20 ADD SWAP2 PUSH2 0x3FD JUMP JUMPDEST DUP3 ADD SWAP2 SWAP1 PUSH1 0x0 MSTORE PUSH1 0x20 PUSH1 0x0 KECCAK256 SWAP1 JUMPDEST DUP2 SLOAD DUP2 MSTORE SWAP1 PUSH1 0x1 ADD SWAP1 PUSH1 0x20 ADD DUP1 DUP4 GT PUSH2 0x3E0 JUMPI DUP3 SWAP1 SUB PUSH1 0x1F AND DUP3 ADD SWAP2 JUMPDEST POP POP POP POP POP DUP2 MSTORE PUSH1 0x20 ADD PUSH1 0x5 DUP3 ADD DUP1 SLOAD PUSH2 0x416 SWAP1 PUSH2 0xC3A JUMP JUMPDEST DUP1 PUSH1 0x1F ADD PUSH1 0x20 DUP1 SWAP2 DIV MUL PUSH1 0x20 ADD PUSH1 0x40 MLOAD SWAP1 DUP2 ADD PUSH1 0x40 MSTORE DUP1 SWAP3 SWAP2 SWAP1 DUP2 DUP2 MSTORE PUSH1 0x20 ADD DUP3 DUP1 SLOAD PUSH2 0x442 SWAP1 PUSH2 0xC3A JUMP JUMPDEST DUP1 ISZERO PUSH2 0x48F JUMPI DUP1 PUSH1 0x1F LT PUSH2 0x464 JUMPI PUSH2 0x100 DUP1 DUP4 SLOAD DIV MUL DUP4 MSTORE SWAP2 PUSH1 0x20 ADD SWAP2 PUSH2 0x48F JUMP JUMPDEST DUP3 ADD SWAP2 SWAP1 PUSH1 0x0 MSTORE PUSH1 0x20 PUSH1 0x0 KECCAK256 SWAP1 JUMPDEST DUP2 SLOAD DUP2 MSTORE SWAP1 PUSH1 0x1 ADD SWAP1 PUSH1 0x20 ADD DUP1 DUP4 GT PUSH2 0x472 JUMPI DUP3 SWAP1 SUB PUSH1 0x1F AND DUP3 ADD SWAP2 JUMPDEST POP POP POP POP POP DUP2 MSTORE PUSH1 0x20 ADD PUSH1 0x6 DUP3 ADD PUSH1 0x0 SWAP1 SLOAD SWAP1 PUSH2 0x100 EXP SWAP1 DIV PUSH20 0xFFFFFFFFFFFFFFFFFFFFFFFFFFFFFFFFFFFFFFFF AND PUSH20 0xFFFFFFFFFFFFFFFFFFFFFFFFFFFFFFFFFFFFFFFF AND PUSH20 0xFFFFFFFFFFFFFFFFFFFFFFFFFFFFFFFFFFFFFFFF AND DUP2 MSTORE POP POP SWAP1 POP DUP1 PUSH1 0x0 ADD MLOAD DUP2 PUSH1 0x60 ADD MLOAD DUP3 PUSH1 0x80 ADD MLOAD DUP4 PUSH1 0x20 ADD MLOAD DUP5 PUSH1 0xA0 ADD MLOAD SWAP6 POP SWAP6 POP SWAP6 POP SWAP6 POP SWAP6 POP POP SWAP2 SWAP4 SWAP6 SWAP1 SWAP3 SWAP5 POP JUMP JUMPDEST PUSH2 0x525 PUSH2 0x6D1 JUMP JUMPDEST DUP7 DUP2 PUSH1 0x0 ADD DUP2 DUP2 MSTORE POP POP DUP6 DUP2 PUSH1 0x20 ADD DUP2 SWAP1 MSTORE POP DUP5 DUP2 PUSH1 0x40 ADD DUP2 DUP2 MSTORE POP POP PUSH8 0x16345785D8A0000 DUP2 PUSH1 0x60 ADD DUP2 DUP2 MSTORE POP POP DUP4 DUP2 PUSH1 0x80 ADD DUP2 SWAP1 MSTORE POP DUP3 DUP2 PUSH1 0xA0 ADD DUP2 SWAP1 MSTORE POP DUP2 DUP2 PUSH1 0xC0 ADD SWAP1 PUSH20 0xFFFFFFFFFFFFFFFFFFFFFFFFFFFFFFFFFFFFFFFF AND SWAP1 DUP2 PUSH20 0xFFFFFFFFFFFFFFFFFFFFFFFFFFFFFFFFFFFFFFFF AND DUP2 MSTORE POP POP PUSH1 0x0 DUP1 DUP9 DUP2 MSTORE PUSH1 0x20 ADD SWAP1 DUP2 MSTORE PUSH1 0x20 ADD PUSH1 0x0 KECCAK256 DUP2 SWAP1 DUP1 PUSH1 0x1 DUP2 SLOAD ADD DUP1 DUP3 SSTORE DUP1 SWAP2 POP POP PUSH1 0x1 SWAP1 SUB SWAP1 PUSH1 0x0 MSTORE PUSH1 0x20 PUSH1 0x0 KECCAK256 SWAP1 PUSH1 0x7 MUL ADD PUSH1 0x0 SWAP1 SWAP2 SWAP1 SWAP2 SWAP1 SWAP2 POP PUSH1 0x0 DUP3 ADD MLOAD DUP2 PUSH1 0x0 ADD SSTORE PUSH1 0x20 DUP3 ADD MLOAD DUP2 PUSH1 0x1 ADD SWAP1 DUP2 PUSH2 0x5F9 SWAP2 SWAP1 PUSH2 0xE17 JUMP JUMPDEST POP PUSH1 0x40 DUP3 ADD MLOAD DUP2 PUSH1 0x2 ADD SSTORE PUSH1 0x60 DUP3 ADD MLOAD DUP2 PUSH1 0x3 ADD SSTORE PUSH1 0x80 DUP3 ADD MLOAD DUP2 PUSH1 0x4 ADD SWAP1 DUP2 PUSH2 0x623 SWAP2 SWAP1 PUSH2 0xE17 JUMP JUMPDEST POP PUSH1 0xA0 DUP3 ADD MLOAD DUP2 PUSH1 0x5 ADD SWAP1 DUP2 PUSH2 0x639 SWAP2 SWAP1 PUSH2 0xE17 JUMP JUMPDEST POP PUSH1 0xC0 DUP3 ADD MLOAD DUP2 PUSH1 0x6 ADD PUSH1 0x0 PUSH2 0x100 EXP DUP2 SLOAD DUP2 PUSH20 0xFFFFFFFFFFFFFFFFFFFFFFFFFFFFFFFFFFFFFFFF MUL NOT AND SWAP1 DUP4 PUSH20 0xFFFFFFFFFFFFFFFFFFFFFFFFFFFFFFFFFFFFFFFF AND MUL OR SWAP1 SSTORE POP POP POP PUSH32 0x1B9F0B183EB697D11C245EB8B7F8AE297D0F82477CE0321B6BDA5332909EB24E DUP8 DUP7 DUP4 PUSH1 0x60 ADD MLOAD DUP10 DUP9 DUP8 PUSH1 0x40 MLOAD PUSH2 0x6C0 SWAP7 SWAP6 SWAP5 SWAP4 SWAP3 SWAP2 SWAP1 PUSH2 0xF3E JUMP JUMPDEST PUSH1 0x40 MLOAD DUP1 SWAP2 SUB SWAP1 LOG1 POP POP POP POP POP POP POP JUMP JUMPDEST PUSH1 0x40 MLOAD DUP1 PUSH1 0xE0 ADD PUSH1 0x40 MSTORE DUP1 PUSH1 0x0 DUP2 MSTORE PUSH1 0x20 ADD PUSH1 0x60 DUP2 MSTORE PUSH1 0x20 ADD PUSH1 0x0 DUP2 MSTORE PUSH1 0x20 ADD PUSH1 0x0 DUP2 MSTORE PUSH1 0x20 ADD PUSH1 0x60 DUP2 MSTORE PUSH1 0x20 ADD PUSH1 0x60 DUP2 MSTORE PUSH1 0x20 ADD PUSH1 0x0 PUSH20 0xFFFFFFFFFFFFFFFFFFFFFFFFFFFFFFFFFFFFFFFF AND DUP2 MSTORE POP SWAP1 JUMP JUMPDEST PUSH1 0x0 PUSH1 0x40 MLOAD SWAP1 POP SWAP1 JUMP JUMPDEST PUSH1 0x0 DUP1 REVERT JUMPDEST PUSH1 0x0 DUP1 REVERT JUMPDEST PUSH1 0x0 DUP2 SWAP1 POP SWAP2 SWAP1 POP JUMP JUMPDEST PUSH2 0x74B DUP2 PUSH2 0x738 JUMP JUMPDEST DUP2 EQ PUSH2 0x756 JUMPI PUSH1 0x0 DUP1 REVERT JUMPDEST POP JUMP JUMPDEST PUSH1 0x0 DUP2 CALLDATALOAD SWAP1 POP PUSH2 0x768 DUP2 PUSH2 0x742 JUMP JUMPDEST SWAP3 SWAP2 POP POP JUMP JUMPDEST PUSH1 0x0 PUSH1 0x20 DUP3 DUP5 SUB SLT ISZERO PUSH2 0x784 JUMPI PUSH2 0x783 PUSH2 0x72E JUMP JUMPDEST JUMPDEST PUSH1 0x0 PUSH2 0x792 DUP5 DUP3 DUP6 ADD PUSH2 0x759 JUMP JUMPDEST SWAP2 POP POP SWAP3 SWAP2 POP POP JUMP JUMPDEST PUSH1 0x0 DUP2 ISZERO ISZERO SWAP1 POP SWAP2 SWAP1 POP JUMP JUMPDEST PUSH2 0x7B0 DUP2 PUSH2 0x79B JUMP JUMPDEST DUP3 MSTORE POP POP JUMP JUMPDEST PUSH1 0x0 PUSH1 0x20 DUP3 ADD SWAP1 POP PUSH2 0x7CB PUSH1 0x0 DUP4 ADD DUP5 PUSH2 0x7A7 JUMP JUMPDEST SWAP3 SWAP2 POP POP JUMP JUMPDEST PUSH2 0x7DA DUP2 PUSH2 0x738 JUMP JUMPDEST DUP3 MSTORE POP POP JUMP JUMPDEST PUSH1 0x0 DUP2 MLOAD SWAP1 POP SWAP2 SWAP1 POP JUMP JUMPDEST PUSH1 0x0 DUP3 DUP3 MSTORE PUSH1 0x20 DUP3 ADD SWAP1 POP SWAP3 SWAP2 POP POP JUMP JUMPDEST PUSH1 0x0 JUMPDEST DUP4 DUP2 LT ISZERO PUSH2 0x81A JUMPI DUP1 DUP3 ADD MLOAD DUP2 DUP5 ADD MSTORE PUSH1 0x20 DUP2 ADD SWAP1 POP PUSH2 0x7FF JUMP JUMPDEST PUSH1 0x0 DUP5 DUP5 ADD MSTORE POP POP POP POP JUMP JUMPDEST PUSH1 0x0 PUSH1 0x1F NOT PUSH1 0x1F DUP4 ADD AND SWAP1 POP SWAP2 SWAP1 POP JUMP JUMPDEST PUSH1 0x0 PUSH2 0x842 DUP3 PUSH2 0x7E0 JUMP JUMPDEST PUSH2 0x84C DUP2 DUP6 PUSH2 0x7EB JUMP JUMPDEST SWAP4 POP PUSH2 0x85C DUP2 DUP6 PUSH1 0x20 DUP7 ADD PUSH2 0x7FC JUMP JUMPDEST PUSH2 0x865 DUP2 PUSH2 0x826 JUMP JUMPDEST DUP5 ADD SWAP2 POP POP SWAP3 SWAP2 POP POP JUMP JUMPDEST PUSH1 0x0 PUSH1 0xA0 DUP3 ADD SWAP1 POP PUSH2 0x885 PUSH1 0x0 DUP4 ADD DUP9 PUSH2 0x7D1 JUMP JUMPDEST PUSH2 0x892 PUSH1 0x20 DUP4 ADD DUP8 PUSH2 0x7D1 JUMP JUMPDEST DUP2 DUP2 SUB PUSH1 0x40 DUP4 ADD MSTORE PUSH2 0x8A4 DUP2 DUP7 PUSH2 0x837 JUMP JUMPDEST SWAP1 POP DUP2 DUP2 SUB PUSH1 0x60 DUP4 ADD MSTORE PUSH2 0x8B8 DUP2 DUP6 PUSH2 0x837 JUMP JUMPDEST SWAP1 POP DUP2 DUP2 SUB PUSH1 0x80 DUP4 ADD MSTORE PUSH2 0x8CC DUP2 DUP5 PUSH2 0x837 JUMP JUMPDEST SWAP1 POP SWAP7 SWAP6 POP POP POP POP POP POP JUMP JUMPDEST PUSH1 0x0 DUP1 REVERT JUMPDEST PUSH1 0x0 DUP1 REVERT JUMPDEST PUSH32 0x4E487B7100000000000000000000000000000000000000000000000000000000 PUSH1 0x0 MSTORE PUSH1 0x41 PUSH1 0x4 MSTORE PUSH1 0x24 PUSH1 0x0 REVERT JUMPDEST PUSH2 0x91A DUP3 PUSH2 0x826 JUMP JUMPDEST DUP2 ADD DUP2 DUP2 LT PUSH8 0xFFFFFFFFFFFFFFFF DUP3 GT OR ISZERO PUSH2 0x939 JUMPI PUSH2 0x938 PUSH2 0x8E2 JUMP JUMPDEST JUMPDEST DUP1 PUSH1 0x40 MSTORE POP POP POP JUMP JUMPDEST PUSH1 0x0 PUSH2 0x94C PUSH2 0x724 JUMP JUMPDEST SWAP1 POP PUSH2 0x958 DUP3 DUP3 PUSH2 0x911 JUMP JUMPDEST SWAP2 SWAP1 POP JUMP JUMPDEST PUSH1 0x0 PUSH8 0xFFFFFFFFFFFFFFFF DUP3 GT ISZERO PUSH2 0x978 JUMPI PUSH2 0x977 PUSH2 0x8E2 JUMP JUMPDEST JUMPDEST PUSH2 0x981 DUP3 PUSH2 0x826 JUMP JUMPDEST SWAP1 POP PUSH1 0x20 DUP2 ADD SWAP1 POP SWAP2 SWAP1 POP JUMP JUMPDEST DUP3 DUP2 DUP4 CALLDATACOPY PUSH1 0x0 DUP4 DUP4 ADD MSTORE POP POP POP JUMP JUMPDEST PUSH1 0x0 PUSH2 0x9B0 PUSH2 0x9AB DUP5 PUSH2 0x95D JUMP JUMPDEST PUSH2 0x942 JUMP JUMPDEST SWAP1 POP DUP3 DUP2 MSTORE PUSH1 0x20 DUP2 ADD DUP5 DUP5 DUP5 ADD GT ISZERO PUSH2 0x9CC JUMPI PUSH2 0x9CB PUSH2 0x8DD JUMP JUMPDEST JUMPDEST PUSH2 0x9D7 DUP5 DUP3 DUP6 PUSH2 0x98E JUMP JUMPDEST POP SWAP4 SWAP3 POP POP POP JUMP JUMPDEST PUSH1 0x0 DUP3 PUSH1 0x1F DUP4 ADD SLT PUSH2 0x9F4 JUMPI PUSH2 0x9F3 PUSH2 0x8D8 JUMP JUMPDEST JUMPDEST DUP2 CALLDATALOAD PUSH2 0xA04 DUP5 DUP3 PUSH1 0x20 DUP7 ADD PUSH2 0x99D JUMP JUMPDEST SWAP2 POP POP SWAP3 SWAP2 POP POP JUMP JUMPDEST PUSH1 0x0 PUSH20 0xFFFFFFFFFFFFFFFFFFFFFFFFFFFFFFFFFFFFFFFF DUP3 AND SWAP1 POP SWAP2 SWAP1 POP JUMP JUMPDEST PUSH1 0x0 PUSH2 0xA38 DUP3 PUSH2 0xA0D JUMP JUMPDEST SWAP1 POP SWAP2 SWAP1 POP JUMP JUMPDEST PUSH2 0xA48 DUP2 PUSH2 0xA2D JUMP JUMPDEST DUP2 EQ PUSH2 0xA53 JUMPI PUSH1 0x0 DUP1 REVERT JUMPDEST POP JUMP JUMPDEST PUSH1 0x0 DUP2 CALLDATALOAD SWAP1 POP PUSH2 0xA65 DUP2 PUSH2 0xA3F JUMP JUMPDEST SWAP3 SWAP2 POP POP JUMP JUMPDEST PUSH1 0x0 DUP1 PUSH1 0x0 DUP1 PUSH1 0x0 DUP1 PUSH1 0xC0 DUP8 DUP10 SUB SLT ISZERO PUSH2 0xA88 JUMPI PUSH2 0xA87 PUSH2 0x72E JUMP JUMPDEST JUMPDEST PUSH1 0x0 PUSH2 0xA96 DUP10 DUP3 DUP11 ADD PUSH2 0x759 JUMP JUMPDEST SWAP7 POP POP PUSH1 0x20 DUP8 ADD CALLDATALOAD PUSH8 0xFFFFFFFFFFFFFFFF DUP2 GT ISZERO PUSH2 0xAB7 JUMPI PUSH2 0xAB6 PUSH2 0x733 JUMP JUMPDEST JUMPDEST PUSH2 0xAC3 DUP10 DUP3 DUP11 ADD PUSH2 0x9DF JUMP JUMPDEST SWAP6 POP POP PUSH1 0x40 PUSH2 0xAD4 DUP10 DUP3 DUP11 ADD PUSH2 0x759 JUMP JUMPDEST SWAP5 POP POP PUSH1 0x60 DUP8 ADD CALLDATALOAD PUSH8 0xFFFFFFFFFFFFFFFF DUP2 GT ISZERO PUSH2 0xAF5 JUMPI PUSH2 0xAF4 PUSH2 0x733 JUMP JUMPDEST JUMPDEST PUSH2 0xB01 DUP10 DUP3 DUP11 ADD PUSH2 0x9DF JUMP JUMPDEST SWAP4 POP POP PUSH1 0x80 DUP8 ADD CALLDATALOAD PUSH8 0xFFFFFFFFFFFFFFFF DUP2 GT ISZERO PUSH2 0xB22 JUMPI PUSH2 0xB21 PUSH2 0x733 JUMP JUMPDEST JUMPDEST PUSH2 0xB2E DUP10 DUP3 DUP11 ADD PUSH2 0x9DF JUMP JUMPDEST SWAP3 POP POP PUSH1 0xA0 PUSH2 0xB3F DUP10 DUP3 DUP11 ADD PUSH2 0xA56 JUMP JUMPDEST SWAP2 POP POP SWAP3 SWAP6 POP SWAP3 SWAP6 POP SWAP3 SWAP6 JUMP JUMPDEST PUSH32 0x4E487B7100000000000000000000000000000000000000000000000000000000 PUSH1 0x0 MSTORE PUSH1 0x32 PUSH1 0x4 MSTORE PUSH1 0x24 PUSH1 0x0 REVERT JUMPDEST PUSH1 0x0 PUSH2 0xB86 DUP3 PUSH2 0xA0D JUMP JUMPDEST SWAP1 POP SWAP2 SWAP1 POP JUMP JUMPDEST PUSH2 0xB96 DUP2 PUSH2 0xB7B JUMP JUMPDEST DUP3 MSTORE POP POP JUMP JUMPDEST PUSH1 0x0 PUSH1 0x40 DUP3 ADD SWAP1 POP PUSH2 0xBB1 PUSH1 0x0 DUP4 ADD DUP6 PUSH2 0xB8D JUMP JUMPDEST PUSH2 0xBBE PUSH1 0x20 DUP4 ADD DUP5 PUSH2 0x7D1 JUMP JUMPDEST SWAP4 SWAP3 POP POP POP JUMP JUMPDEST PUSH1 0x0 DUP2 SWAP1 POP SWAP3 SWAP2 POP POP JUMP JUMPDEST POP JUMP JUMPDEST PUSH1 0x0 PUSH2 0xBE0 PUSH1 0x0 DUP4 PUSH2 0xBC5 JUMP JUMPDEST SWAP2 POP PUSH2 0xBEB DUP3 PUSH2 0xBD0 JUMP JUMPDEST PUSH1 0x0 DUP3 ADD SWAP1 POP SWAP2 SWAP1 POP JUMP JUMPDEST PUSH1 0x0 PUSH2 0xC01 DUP3 PUSH2 0xBD3 JUMP JUMPDEST SWAP2 POP DUP2 SWAP1 POP SWAP2 SWAP1 POP JUMP JUMPDEST PUSH32 0x4E487B7100000000000000000000000000000000000000000000000000000000 PUSH1 0x0 MSTORE PUSH1 0x22 PUSH1 0x4 MSTORE PUSH1 0x24 PUSH1 0x0 REVERT JUMPDEST PUSH1 0x0 PUSH1 0x2 DUP3 DIV SWAP1 POP PUSH1 0x1 DUP3 AND DUP1 PUSH2 0xC52 JUMPI PUSH1 0x7F DUP3 AND SWAP2 POP JUMPDEST PUSH1 0x20 DUP3 LT DUP2 SUB PUSH2 0xC65 JUMPI PUSH2 0xC64 PUSH2 0xC0B JUMP JUMPDEST JUMPDEST POP SWAP2 SWAP1 POP JUMP JUMPDEST PUSH1 0x0 DUP2 SWAP1 POP DUP2 PUSH1 0x0 MSTORE PUSH1 0x20 PUSH1 0x0 KECCAK256 SWAP1 POP SWAP2 SWAP1 POP JUMP JUMPDEST PUSH1 0x0 PUSH1 0x20 PUSH1 0x1F DUP4 ADD DIV SWAP1 POP SWAP2 SWAP1 POP JUMP JUMPDEST PUSH1 0x0 DUP3 DUP3 SHL SWAP1 POP SWAP3 SWAP2 POP POP JUMP JUMPDEST PUSH1 0x0 PUSH1 0x8 DUP4 MUL PUSH2 0xCCD PUSH32 0xFFFFFFFFFFFFFFFFFFFFFFFFFFFFFFFFFFFFFFFFFFFFFFFFFFFFFFFFFFFFFFFF DUP3 PUSH2 0xC90 JUMP JUMPDEST PUSH2 0xCD7 DUP7 DUP4 PUSH2 0xC90 JUMP JUMPDEST SWAP6 POP DUP1 NOT DUP5 AND SWAP4 POP DUP1 DUP7 AND DUP5 OR SWAP3 POP POP POP SWAP4 SWAP3 POP POP POP JUMP JUMPDEST PUSH1 0x0 DUP2 SWAP1 POP SWAP2 SWAP1 POP JUMP JUMPDEST PUSH1 0x0 PUSH2 0xD14 PUSH2 0xD0F PUSH2 0xD0A DUP5 PUSH2 0x738 JUMP JUMPDEST PUSH2 0xCEF JUMP JUMPDEST PUSH2 0x738 JUMP JUMPDEST SWAP1 POP SWAP2 SWAP1 POP JUMP JUMPDEST PUSH1 0x0 DUP2 SWAP1 POP SWAP2 SWAP1 POP JUMP JUMPDEST PUSH2 0xD2E DUP4 PUSH2 0xCF9 JUMP JUMPDEST PUSH2 0xD42 PUSH2 0xD3A DUP3 PUSH2 0xD1B JUMP JUMPDEST DUP5 DUP5 SLOAD PUSH2 0xC9D JUMP JUMPDEST DUP3 SSTORE POP POP POP POP JUMP JUMPDEST PUSH1 0x0 SWAP1 JUMP JUMPDEST PUSH2 0xD57 PUSH2 0xD4A JUMP JUMPDEST PUSH2 0xD62 DUP2 DUP5 DUP5 PUSH2 0xD25 JUMP JUMPDEST POP POP POP JUMP JUMPDEST JUMPDEST DUP2 DUP2 LT ISZERO PUSH2 0xD86 JUMPI PUSH2 0xD7B PUSH1 0x0 DUP3 PUSH2 0xD4F JUMP JUMPDEST PUSH1 0x1 DUP2 ADD SWAP1 POP PUSH2 0xD68 JUMP JUMPDEST POP POP JUMP JUMPDEST PUSH1 0x1F DUP3 GT ISZERO PUSH2 0xDCB JUMPI PUSH2 0xD9C DUP2 PUSH2 0xC6B JUMP JUMPDEST PUSH2 0xDA5 DUP5 PUSH2 0xC80 JUMP JUMPDEST DUP2 ADD PUSH1 0x20 DUP6 LT ISZERO PUSH2 0xDB4 JUMPI DUP2 SWAP1 POP JUMPDEST PUSH2 0xDC8 PUSH2 0xDC0 DUP6 PUSH2 0xC80 JUMP JUMPDEST DUP4 ADD DUP3 PUSH2 0xD67 JUMP JUMPDEST POP POP JUMPDEST POP POP POP JUMP JUMPDEST PUSH1 0x0 DUP3 DUP3 SHR SWAP1 POP SWAP3 SWAP2 POP POP JUMP JUMPDEST PUSH1 0x0 PUSH2 0xDEE PUSH1 0x0 NOT DUP5 PUSH1 0x8 MUL PUSH2 0xDD0 JUMP JUMPDEST NOT DUP1 DUP4 AND SWAP2 POP POP SWAP3 SWAP2 POP POP JUMP JUMPDEST PUSH1 0x0 PUSH2 0xE07 DUP4 DUP4 PUSH2 0xDDD JUMP JUMPDEST SWAP2 POP DUP3 PUSH1 0x2 MUL DUP3 OR SWAP1 POP SWAP3 SWAP2 POP POP JUMP JUMPDEST PUSH2 0xE20 DUP3 PUSH2 0x7E0 JUMP JUMPDEST PUSH8 0xFFFFFFFFFFFFFFFF DUP2 GT ISZERO PUSH2 0xE39 JUMPI PUSH2 0xE38 PUSH2 0x8E2 JUMP JUMPDEST JUMPDEST PUSH2 0xE43 DUP3 SLOAD PUSH2 0xC3A JUMP JUMPDEST PUSH2 0xE4E DUP3 DUP3 DUP6 PUSH2 0xD8A JUMP JUMPDEST PUSH1 0x0 PUSH1 0x20 SWAP1 POP PUSH1 0x1F DUP4 GT PUSH1 0x1 DUP2 EQ PUSH2 0xE81 JUMPI PUSH1 0x0 DUP5 ISZERO PUSH2 0xE6F JUMPI DUP3 DUP8 ADD MLOAD SWAP1 POP JUMPDEST PUSH2 0xE79 DUP6 DUP3 PUSH2 0xDFB JUMP JUMPDEST DUP7 SSTORE POP PUSH2 0xEE1 JUMP JUMPDEST PUSH1 0x1F NOT DUP5 AND PUSH2 0xE8F DUP7 PUSH2 0xC6B JUMP JUMPDEST PUSH1 0x0 JUMPDEST DUP3 DUP2 LT ISZERO PUSH2 0xEB7 JUMPI DUP5 DUP10 ADD MLOAD DUP3 SSTORE PUSH1 0x1 DUP3 ADD SWAP2 POP PUSH1 0x20 DUP6 ADD SWAP5 POP PUSH1 0x20 DUP2 ADD SWAP1 POP PUSH2 0xE92 JUMP JUMPDEST DUP7 DUP4 LT ISZERO PUSH2 0xED4 JUMPI DUP5 DUP10 ADD MLOAD PUSH2 0xED0 PUSH1 0x1F DUP10 AND DUP3 PUSH2 0xDDD JUMP JUMPDEST DUP4 SSTORE POP JUMPDEST PUSH1 0x1 PUSH1 0x2 DUP9 MUL ADD DUP9 SSTORE POP POP POP JUMPDEST POP POP POP POP POP POP JUMP JUMPDEST PUSH1 0x0 PUSH2 0xF04 PUSH2 0xEFF PUSH2 0xEFA DUP5 PUSH2 0xA0D JUMP JUMPDEST PUSH2 0xCEF JUMP JUMPDEST PUSH2 0xA0D JUMP JUMPDEST SWAP1 POP SWAP2 SWAP1 POP JUMP JUMPDEST PUSH1 0x0 PUSH2 0xF16 DUP3 PUSH2 0xEE9 JUMP JUMPDEST SWAP1 POP SWAP2 SWAP1 POP JUMP JUMPDEST PUSH1 0x0 PUSH2 0xF28 DUP3 PUSH2 0xF0B JUMP JUMPDEST SWAP1 POP SWAP2 SWAP1 POP JUMP JUMPDEST PUSH2 0xF38 DUP2 PUSH2 0xF1D JUMP JUMPDEST DUP3 MSTORE POP POP JUMP JUMPDEST PUSH1 0x0 PUSH1 0xC0 DUP3 ADD SWAP1 POP PUSH2 0xF53 PUSH1 0x0 DUP4 ADD DUP10 PUSH2 0x7D1 JUMP JUMPDEST PUSH2 0xF60 PUSH1 0x20 DUP4 ADD DUP9 PUSH2 0x7D1 JUMP JUMPDEST PUSH2 0xF6D PUSH1 0x40 DUP4 ADD DUP8 PUSH2 0x7D1 JUMP JUMPDEST DUP2 DUP2 SUB PUSH1 0x60 DUP4 ADD MSTORE PUSH2 0xF7F DUP2 DUP7 PUSH2 0x837 JUMP JUMPDEST SWAP1 POP DUP2 DUP2 SUB PUSH1 0x80 DUP4 ADD MSTORE PUSH2 0xF93 DUP2 DUP6 PUSH2 0x837 JUMP JUMPDEST SWAP1 POP PUSH2 0xFA2 PUSH1 0xA0 DUP4 ADD DUP5 PUSH2 0xF2F JUMP JUMPDEST SWAP8 SWAP7 POP POP POP POP POP POP POP JUMP INVALID LOG2 PUSH5 0x6970667358 0x22 SLT KECCAK256 0xD6 CHAINID 0xB7 0xE3 DUP8 PUSH12 0x2D4A65B1AEC6E0EF24C0C14E 0x2F 0x4F PUSH28 0xAE3B4097049DA118B8E77964736F6C63430008120033000000000000 "
		},
		"gasEstimates": {
			"creation": {
				"codeDepositCost": "813400",
				"executionCost": "851",
				"totalCost": "814251"
			},
			"external": {
				"addProduct(uint256,string,uint256,string,string,address)": "infinite",
				"buyProduct(uint256)": "infinite",
				"getProduct(uint256)": "infinite"
			}
		},
		"methodIdentifiers": {
			"addProduct(uint256,string,uint256,string,string,address)": "f08a81a6",
			"buyProduct(uint256)": "8642269e",
			"getProduct(uint256)": "b9db15b4"
		}
	},
	"abi": [
		{
			"anonymous": false,
			"inputs": [
				{
					"indexed": false,
					"internalType": "uint256",
					"name": "id",
					"type": "uint256"
				},
				{
					"indexed": false,
					"internalType": "uint256",
					"name": "quantity",
					"type": "uint256"
				},
				{
					"indexed": false,
					"internalType": "uint256",
					"name": "price",
					"type": "uint256"
				},
				{
					"indexed": false,
					"internalType": "string",
					"name": "dateOfHarvest",
					"type": "string"
				},
				{
					"indexed": false,
					"internalType": "string",
					"name": "variety",
					"type": "string"
				},
				{
					"indexed": false,
					"internalType": "address",
					"name": "owner",
					"type": "address"
				}
			],
			"name": "ProductCreated",
			"type": "event"
		},
		{
			"anonymous": false,
			"inputs": [
				{
					"indexed": true,
					"internalType": "uint256",
					"name": "id",
					"type": "uint256"
				},
				{
					"indexed": false,
					"internalType": "address",
					"name": "_seller",
					"type": "address"
				},
				{
					"indexed": false,
					"internalType": "uint256",
					"name": "_price",
					"type": "uint256"
				}
			],
			"name": "ProductPurchased",
			"type": "event"
		},
		{
			"inputs": [
				{
					"internalType": "uint256",
					"name": "_id",
					"type": "uint256"
				},
				{
					"internalType": "string",
					"name": "_dateOfHarvest",
					"type": "string"
				},
				{
					"internalType": "uint256",
					"name": "_quantity",
					"type": "uint256"
				},
				{
					"internalType": "string",
					"name": "_variety",
					"type": "string"
				},
				{
					"internalType": "string",
					"name": "_fertType",
					"type": "string"
				},
				{
					"internalType": "address payable",
					"name": "_owner",
					"type": "address"
				}
			],
			"name": "addProduct",
			"outputs": [],
			"stateMutability": "nonpayable",
			"type": "function"
		},
		{
			"inputs": [
				{
					"internalType": "uint256",
					"name": "_id",
					"type": "uint256"
				}
			],
			"name": "buyProduct",
			"outputs": [
				{
					"internalType": "bool",
					"name": "",
					"type": "bool"
				}
			],
			"stateMutability": "payable",
			"type": "function"
		},
		{
			"inputs": [
				{
					"internalType": "uint256",
					"name": "_id",
					"type": "uint256"
				}
			],
			"name": "getProduct",
			"outputs": [
				{
					"internalType": "uint256",
					"name": "",
					"type": "uint256"
				},
				{
					"internalType": "uint256",
					"name": "",
					"type": "uint256"
				},
				{
					"internalType": "string",
					"name": "",
					"type": "string"
				},
				{
					"internalType": "string",
					"name": "",
					"type": "string"
				},
				{
					"internalType": "string",
					"name": "",
					"type": "string"
				}
			],
			"stateMutability": "view",
			"type": "function"
		}
	]
}