{
	"contract/Tomatrack.sol": {
		"Tomatrack": {
			"abi": [
				{
					"anonymous": false,
					"inputs": [
						{
							"indexed": false,
							"internalType": "uint256",
							"name": "id",
							"type": "uint256"
						},
						{
							"indexed": false,
							"internalType": "uint256",
							"name": "quantity",
							"type": "uint256"
						},
						{
							"indexed": false,
							"internalType": "uint256",
							"name": "price",
							"type": "uint256"
						},
						{
							"indexed": false,
							"internalType": "string",
							"name": "dateOfHarvest",
							"type": "string"
						},
						{
							"indexed": false,
							"internalType": "string",
							"name": "variety",
							"type": "string"
						},
						{
							"indexed": false,
							"internalType": "address",
							"name": "owner",
							"type": "address"
						}
					],
					"name": "ProductCreated",
					"type": "event"
				},
				{
					"anonymous": false,
					"inputs": [
						{
							"indexed": true,
							"internalType": "uint256",
							"name": "id",
							"type": "uint256"
						},
						{
							"indexed": false,
							"internalType": "address",
							"name": "_seller",
							"type": "address"
						},
						{
							"indexed": false,
							"internalType": "uint256",
							"name": "_price",
							"type": "uint256"
						}
					],
					"name": "ProductPurchased",
					"type": "event"
				},
				{
					"inputs": [
						{
							"internalType": "uint256",
							"name": "_id",
							"type": "uint256"
						},
						{
							"internalType": "string",
							"name": "_dateOfHarvest",
							"type": "string"
						},
						{
							"internalType": "uint256",
							"name": "_quantity",
							"type": "uint256"
						},
						{
							"internalType": "string",
							"name": "_variety",
							"type": "string"
						},
						{
							"internalType": "address payable",
							"name": "_owner",
							"type": "address"
						}
					],
					"name": "addProduct",
					"outputs": [],
					"stateMutability": "nonpayable",
					"type": "function"
				},
				{
					"inputs": [
						{
							"internalType": "uint256",
							"name": "_id",
							"type": "uint256"
						}
					],
					"name": "buyProduct",
					"outputs": [
						{
							"internalType": "bool",
							"name": "",
							"type": "bool"
						}
					],
					"stateMutability": "payable",
					"type": "function"
				},
				{
					"inputs": [
						{
							"internalType": "uint256",
							"name": "_id",
							"type": "uint256"
						}
					],
					"name": "getProduct",
					"outputs": [
						{
							"internalType": "uint256",
							"name": "",
							"type": "uint256"
						},
						{
							"internalType": "uint256",
							"name": "",
							"type": "uint256"
						},
						{
							"internalType": "string",
							"name": "",
							"type": "string"
						},
						{
							"internalType": "string",
							"name": "",
							"type": "string"
						}
					],
					"stateMutability": "view",
					"type": "function"
				}
			],
			"devdoc": {
				"kind": "dev",
				"methods": {},
				"version": 1
			},
			"evm": {
				"assembly": "    /* \"contract/Tomatrack.sol\":92:2136  contract Tomatrack{... */\n  mstore(0x40, 0x80)\n  callvalue\n  dup1\n  iszero\n  tag_1\n  jumpi\n  0x00\n  dup1\n  revert\ntag_1:\n  pop\n  dataSize(sub_0)\n  dup1\n  dataOffset(sub_0)\n  0x00\n  codecopy\n  0x00\n  return\nstop\n\nsub_0: assembly {\n        /* \"contract/Tomatrack.sol\":92:2136  contract Tomatrack{... */\n      mstore(0x40, 0x80)\n      jumpi(tag_1, lt(calldatasize, 0x04))\n      shr(0xe0, calldataload(0x00))\n      dup1\n      0x5c40465e\n      eq\n      tag_2\n      jumpi\n      dup1\n      0x8642269e\n      eq\n      tag_3\n      jumpi\n      dup1\n      0xb9db15b4\n      eq\n      tag_4\n      jumpi\n    tag_1:\n      0x00\n      dup1\n      revert\n        /* \"contract/Tomatrack.sol\":762:1519  function addProduct(uint256 _id, string memory _dateOfHarvest, uint256 _quantity, string memory _variety, address payable _owner ) public {... */\n    tag_2:\n      callvalue\n      dup1\n      iszero\n      tag_5\n      jumpi\n      0x00\n      dup1\n      revert\n    tag_5:\n      pop\n      tag_6\n      0x04\n      dup1\n      calldatasize\n      sub\n      dup2\n      add\n      swap1\n      tag_7\n      swap2\n      swap1\n      tag_8\n      jump\t// in\n    tag_7:\n      tag_9\n      jump\t// in\n    tag_6:\n      stop\n        /* \"contract/Tomatrack.sol\":1842:2133  function buyProduct(uint256 _id) payable public returns(bool){... */\n    tag_3:\n      tag_10\n      0x04\n      dup1\n      calldatasize\n      sub\n      dup2\n      add\n      swap1\n      tag_11\n      swap2\n      swap1\n      tag_12\n      jump\t// in\n    tag_11:\n      tag_13\n      jump\t// in\n    tag_10:\n      mload(0x40)\n      tag_14\n      swap2\n      swap1\n      tag_15\n      jump\t// in\n    tag_14:\n      mload(0x40)\n      dup1\n      swap2\n      sub\n      swap1\n      return\n        /* \"contract/Tomatrack.sol\":1565:1800  function getProduct(uint256 _id) view public returns( uint256, uint256, string memory, string memory) {... */\n    tag_4:\n      callvalue\n      dup1\n      iszero\n      tag_16\n      jumpi\n      0x00\n      dup1\n      revert\n    tag_16:\n      pop\n      tag_17\n      0x04\n      dup1\n      calldatasize\n      sub\n      dup2\n      add\n      swap1\n      tag_18\n      swap2\n      swap1\n      tag_12\n      jump\t// in\n    tag_18:\n      tag_19\n      jump\t// in\n    tag_17:\n      mload(0x40)\n      tag_20\n      swap5\n      swap4\n      swap3\n      swap2\n      swap1\n      tag_21\n      jump\t// in\n    tag_20:\n      mload(0x40)\n      dup1\n      swap2\n      sub\n      swap1\n      return\n        /* \"contract/Tomatrack.sol\":762:1519  function addProduct(uint256 _id, string memory _dateOfHarvest, uint256 _quantity, string memory _variety, address payable _owner ) public {... */\n    tag_9:\n        /* \"contract/Tomatrack.sol\":960:985  Product memory newProduct */\n      tag_23\n      tag_24\n      jump\t// in\n    tag_23:\n        /* \"contract/Tomatrack.sol\":1069:1072  _id */\n      dup6\n        /* \"contract/Tomatrack.sol\":1053:1063  newProduct */\n      dup2\n        /* \"contract/Tomatrack.sol\":1053:1066  newProduct.id */\n      0x00\n      add\n        /* \"contract/Tomatrack.sol\":1053:1072  newProduct.id = _id */\n      dup2\n      dup2\n      mstore\n      pop\n      pop\n        /* \"contract/Tomatrack.sol\":1110:1124  _dateOfHarvest */\n      dup5\n        /* \"contract/Tomatrack.sol\":1083:1093  newProduct */\n      dup2\n        /* \"contract/Tomatrack.sol\":1083:1107  newProduct.dateOfHarvest */\n      0x20\n      add\n        /* \"contract/Tomatrack.sol\":1083:1124  newProduct.dateOfHarvest = _dateOfHarvest */\n      dup2\n      swap1\n      mstore\n      pop\n        /* \"contract/Tomatrack.sol\":1157:1166  _quantity */\n      dup4\n        /* \"contract/Tomatrack.sol\":1135:1145  newProduct */\n      dup2\n        /* \"contract/Tomatrack.sol\":1135:1154  newProduct.quantity */\n      0x40\n      add\n        /* \"contract/Tomatrack.sol\":1135:1166  newProduct.quantity = _quantity */\n      dup2\n      dup2\n      mstore\n      pop\n      pop\n        /* \"contract/Tomatrack.sol\":1196:1205  0.1 ether */\n      0x016345785d8a0000\n        /* \"contract/Tomatrack.sol\":1177:1187  newProduct */\n      dup2\n        /* \"contract/Tomatrack.sol\":1177:1193  newProduct.price */\n      0x60\n      add\n        /* \"contract/Tomatrack.sol\":1177:1205  newProduct.price = 0.1 ether */\n      dup2\n      dup2\n      mstore\n      pop\n      pop\n        /* \"contract/Tomatrack.sol\":1237:1245  _variety */\n      dup3\n        /* \"contract/Tomatrack.sol\":1216:1226  newProduct */\n      dup2\n        /* \"contract/Tomatrack.sol\":1216:1234  newProduct.variety */\n      0x80\n      add\n        /* \"contract/Tomatrack.sol\":1216:1245  newProduct.variety = _variety */\n      dup2\n      swap1\n      mstore\n      pop\n        /* \"contract/Tomatrack.sol\":1275:1281  _owner */\n      dup2\n        /* \"contract/Tomatrack.sol\":1256:1266  newProduct */\n      dup2\n        /* \"contract/Tomatrack.sol\":1256:1272  newProduct.owner */\n      0xa0\n      add\n        /* \"contract/Tomatrack.sol\":1256:1281  newProduct.owner = _owner */\n      swap1\n      0xffffffffffffffffffffffffffffffffffffffff\n      and\n      swap1\n      dup2\n      0xffffffffffffffffffffffffffffffffffffffff\n      and\n      dup2\n      mstore\n      pop\n      pop\n        /* \"contract/Tomatrack.sol\":1338:1350  productsOfId */\n      0x00\n        /* \"contract/Tomatrack.sol\":1338:1355  productsOfId[_id] */\n      dup1\n        /* \"contract/Tomatrack.sol\":1351:1354  _id */\n      dup8\n        /* \"contract/Tomatrack.sol\":1338:1355  productsOfId[_id] */\n      dup2\n      mstore\n      0x20\n      add\n      swap1\n      dup2\n      mstore\n      0x20\n      add\n      0x00\n      keccak256\n        /* \"contract/Tomatrack.sol\":1361:1371  newProduct */\n      dup2\n        /* \"contract/Tomatrack.sol\":1338:1372  productsOfId[_id].push(newProduct) */\n      swap1\n      dup1\n      0x01\n      dup2\n      sload\n      add\n      dup1\n      dup3\n      sstore\n      dup1\n      swap2\n      pop\n      pop\n      0x01\n      swap1\n      sub\n      swap1\n      0x00\n      mstore\n      keccak256(0x00, 0x20)\n      swap1\n      0x06\n      mul\n      add\n      0x00\n      swap1\n      swap2\n      swap1\n      swap2\n      swap1\n      swap2\n      pop\n      0x00\n      dup3\n      add\n      mload\n      dup2\n      0x00\n      add\n      sstore\n      0x20\n      dup3\n      add\n      mload\n      dup2\n      0x01\n      add\n      swap1\n      dup2\n      tag_26\n      swap2\n      swap1\n      tag_27\n      jump\t// in\n    tag_26:\n      pop\n      0x40\n      dup3\n      add\n      mload\n      dup2\n      0x02\n      add\n      sstore\n      0x60\n      dup3\n      add\n      mload\n      dup2\n      0x03\n      add\n      sstore\n      0x80\n      dup3\n      add\n      mload\n      dup2\n      0x04\n      add\n      swap1\n      dup2\n      tag_28\n      swap2\n      swap1\n      tag_27\n      jump\t// in\n    tag_28:\n      pop\n      0xa0\n      dup3\n      add\n      mload\n      dup2\n      0x05\n      add\n      exp(0x0100, 0x00)\n      dup2\n      sload\n      dup2\n      0xffffffffffffffffffffffffffffffffffffffff\n      mul\n      not\n      and\n      swap1\n      dup4\n      0xffffffffffffffffffffffffffffffffffffffff\n      and\n      mul\n      or\n      swap1\n      sstore\n      pop\n      pop\n      pop\n        /* \"contract/Tomatrack.sol\":1429:1511  ProductCreated(_id, _quantity, newProduct.price, _dateOfHarvest, _variety, _owner) */\n      0x1b9f0b183eb697d11c245eb8b7f8ae297d0f82477ce0321b6bda5332909eb24e\n        /* \"contract/Tomatrack.sol\":1444:1447  _id */\n      dup7\n        /* \"contract/Tomatrack.sol\":1449:1458  _quantity */\n      dup6\n        /* \"contract/Tomatrack.sol\":1460:1470  newProduct */\n      dup4\n        /* \"contract/Tomatrack.sol\":1460:1476  newProduct.price */\n      0x60\n      add\n      mload\n        /* \"contract/Tomatrack.sol\":1478:1492  _dateOfHarvest */\n      dup9\n        /* \"contract/Tomatrack.sol\":1494:1502  _variety */\n      dup8\n        /* \"contract/Tomatrack.sol\":1504:1510  _owner */\n      dup8\n        /* \"contract/Tomatrack.sol\":1429:1511  ProductCreated(_id, _quantity, newProduct.price, _dateOfHarvest, _variety, _owner) */\n      mload(0x40)\n      tag_29\n      swap7\n      swap6\n      swap5\n      swap4\n      swap3\n      swap2\n      swap1\n      tag_30\n      jump\t// in\n    tag_29:\n      mload(0x40)\n      dup1\n      swap2\n      sub\n      swap1\n      log1\n        /* \"contract/Tomatrack.sol\":900:1519  {... */\n      pop\n        /* \"contract/Tomatrack.sol\":762:1519  function addProduct(uint256 _id, string memory _dateOfHarvest, uint256 _quantity, string memory _variety, address payable _owner ) public {... */\n      pop\n      pop\n      pop\n      pop\n      pop\n      jump\t// out\n        /* \"contract/Tomatrack.sol\":1842:2133  function buyProduct(uint256 _id) payable public returns(bool){... */\n    tag_13:\n        /* \"contract/Tomatrack.sol\":1898:1902  bool */\n      0x00\n        /* \"contract/Tomatrack.sol\":1936:1948  productsOfId */\n      dup1\n        /* \"contract/Tomatrack.sol\":1936:1953  productsOfId[_id] */\n      0x00\n        /* \"contract/Tomatrack.sol\":1949:1952  _id */\n      dup4\n        /* \"contract/Tomatrack.sol\":1936:1953  productsOfId[_id] */\n      dup2\n      mstore\n      0x20\n      add\n      swap1\n      dup2\n      mstore\n      0x20\n      add\n      0x00\n      keccak256\n        /* \"contract/Tomatrack.sol\":1954:1955  0 */\n      0x00\n        /* \"contract/Tomatrack.sol\":1936:1956  productsOfId[_id][0] */\n      dup2\n      sload\n      dup2\n      lt\n      tag_32\n      jumpi\n      tag_33\n      tag_34\n      jump\t// in\n    tag_33:\n    tag_32:\n      swap1\n      0x00\n      mstore\n      keccak256(0x00, 0x20)\n      swap1\n      0x06\n      mul\n      add\n        /* \"contract/Tomatrack.sol\":1936:1959  productsOfId[_id][0].id */\n      0x00\n      add\n      sload\n        /* \"contract/Tomatrack.sol\":1919:2000  ProductPurchased(productsOfId[_id][0].id, msg.sender, productsOfId[_id][0].price) */\n      0xa530f889d7f1bd9a73028e48944ca013ab2c6624a31e3fa26f923f4bb719abd5\n        /* \"contract/Tomatrack.sol\":1961:1971  msg.sender */\n      caller\n        /* \"contract/Tomatrack.sol\":1973:1985  productsOfId */\n      0x00\n        /* \"contract/Tomatrack.sol\":1973:1990  productsOfId[_id] */\n      dup1\n        /* \"contract/Tomatrack.sol\":1986:1989  _id */\n      dup7\n        /* \"contract/Tomatrack.sol\":1973:1990  productsOfId[_id] */\n      dup2\n      mstore\n      0x20\n      add\n      swap1\n      dup2\n      mstore\n      0x20\n      add\n      0x00\n      keccak256\n        /* \"contract/Tomatrack.sol\":1991:1992  0 */\n      0x00\n        /* \"contract/Tomatrack.sol\":1973:1993  productsOfId[_id][0] */\n      dup2\n      sload\n      dup2\n      lt\n      tag_36\n      jumpi\n      tag_37\n      tag_34\n      jump\t// in\n    tag_37:\n    tag_36:\n      swap1\n      0x00\n      mstore\n      keccak256(0x00, 0x20)\n      swap1\n      0x06\n      mul\n      add\n        /* \"contract/Tomatrack.sol\":1973:1999  productsOfId[_id][0].price */\n      0x03\n      add\n      sload\n        /* \"contract/Tomatrack.sol\":1919:2000  ProductPurchased(productsOfId[_id][0].id, msg.sender, productsOfId[_id][0].price) */\n      mload(0x40)\n      tag_39\n      swap3\n      swap2\n      swap1\n      tag_40\n      jump\t// in\n    tag_39:\n      mload(0x40)\n      dup1\n      swap2\n      sub\n      swap1\n      log2\n        /* \"contract/Tomatrack.sol\":2012:2021  bool sent */\n      0x00\n        /* \"contract/Tomatrack.sol\":2032:2044  productsOfId */\n      dup1\n        /* \"contract/Tomatrack.sol\":2032:2049  productsOfId[_id] */\n      0x00\n        /* \"contract/Tomatrack.sol\":2045:2048  _id */\n      dup5\n        /* \"contract/Tomatrack.sol\":2032:2049  productsOfId[_id] */\n      dup2\n      mstore\n      0x20\n      add\n      swap1\n      dup2\n      mstore\n      0x20\n      add\n      0x00\n      keccak256\n        /* \"contract/Tomatrack.sol\":2050:2051  0 */\n      0x00\n        /* \"contract/Tomatrack.sol\":2032:2052  productsOfId[_id][0] */\n      dup2\n      sload\n      dup2\n      lt\n      tag_41\n      jumpi\n      tag_42\n      tag_34\n      jump\t// in\n    tag_42:\n    tag_41:\n      swap1\n      0x00\n      mstore\n      keccak256(0x00, 0x20)\n      swap1\n      0x06\n      mul\n      add\n        /* \"contract/Tomatrack.sol\":2032:2058  productsOfId[_id][0].owner */\n      0x05\n      add\n      0x00\n      swap1\n      sload\n      swap1\n      0x0100\n      exp\n      swap1\n      div\n      0xffffffffffffffffffffffffffffffffffffffff\n      and\n        /* \"contract/Tomatrack.sol\":2024:2064  payable(productsOfId[_id][0].owner).call */\n      0xffffffffffffffffffffffffffffffffffffffff\n      and\n        /* \"contract/Tomatrack.sol\":2072:2084  productsOfId */\n      0x00\n        /* \"contract/Tomatrack.sol\":2072:2089  productsOfId[_id] */\n      dup1\n        /* \"contract/Tomatrack.sol\":2085:2088  _id */\n      dup6\n        /* \"contract/Tomatrack.sol\":2072:2089  productsOfId[_id] */\n      dup2\n      mstore\n      0x20\n      add\n      swap1\n      dup2\n      mstore\n      0x20\n      add\n      0x00\n      keccak256\n        /* \"contract/Tomatrack.sol\":2090:2091  0 */\n      0x00\n        /* \"contract/Tomatrack.sol\":2072:2092  productsOfId[_id][0] */\n      dup2\n      sload\n      dup2\n      lt\n      tag_44\n      jumpi\n      tag_45\n      tag_34\n      jump\t// in\n    tag_45:\n    tag_44:\n      swap1\n      0x00\n      mstore\n      keccak256(0x00, 0x20)\n      swap1\n      0x06\n      mul\n      add\n        /* \"contract/Tomatrack.sol\":2072:2098  productsOfId[_id][0].price */\n      0x03\n      add\n      sload\n        /* \"contract/Tomatrack.sol\":2024:2103  payable(productsOfId[_id][0].owner).call{value: productsOfId[_id][0].price}(\"\") */\n      mload(0x40)\n      tag_47\n      swap1\n      tag_48\n      jump\t// in\n    tag_47:\n      0x00\n      mload(0x40)\n      dup1\n      dup4\n      sub\n      dup2\n      dup6\n      dup8\n      gas\n      call\n      swap3\n      pop\n      pop\n      pop\n      returndatasize\n      dup1\n      0x00\n      dup2\n      eq\n      tag_51\n      jumpi\n      mload(0x40)\n      swap2\n      pop\n      and(add(returndatasize, 0x3f), not(0x1f))\n      dup3\n      add\n      0x40\n      mstore\n      returndatasize\n      dup3\n      mstore\n      returndatasize\n      0x00\n      0x20\n      dup5\n      add\n      returndatacopy\n      jump(tag_50)\n    tag_51:\n      0x60\n      swap2\n      pop\n    tag_50:\n      pop\n        /* \"contract/Tomatrack.sol\":2011:2103  (bool sent,)=payable(productsOfId[_id][0].owner).call{value: productsOfId[_id][0].price}(\"\") */\n      pop\n      swap1\n      pop\n        /* \"contract/Tomatrack.sol\":2121:2125  sent */\n      dup1\n        /* \"contract/Tomatrack.sol\":2114:2125  return sent */\n      swap2\n      pop\n      pop\n        /* \"contract/Tomatrack.sol\":1842:2133  function buyProduct(uint256 _id) payable public returns(bool){... */\n      swap2\n      swap1\n      pop\n      jump\t// out\n        /* \"contract/Tomatrack.sol\":1565:1800  function getProduct(uint256 _id) view public returns( uint256, uint256, string memory, string memory) {... */\n    tag_19:\n        /* \"contract/Tomatrack.sol\":1619:1626  uint256 */\n      0x00\n        /* \"contract/Tomatrack.sol\":1628:1635  uint256 */\n      dup1\n        /* \"contract/Tomatrack.sol\":1637:1650  string memory */\n      0x60\n        /* \"contract/Tomatrack.sol\":1652:1665  string memory */\n      dup1\n        /* \"contract/Tomatrack.sol\":1678:1697  Product memory prod */\n      0x00\n        /* \"contract/Tomatrack.sol\":1700:1712  productsOfId */\n      dup1\n        /* \"contract/Tomatrack.sol\":1700:1717  productsOfId[_id] */\n      0x00\n        /* \"contract/Tomatrack.sol\":1713:1716  _id */\n      dup8\n        /* \"contract/Tomatrack.sol\":1700:1717  productsOfId[_id] */\n      dup2\n      mstore\n      0x20\n      add\n      swap1\n      dup2\n      mstore\n      0x20\n      add\n      0x00\n      keccak256\n        /* \"contract/Tomatrack.sol\":1718:1719  0 */\n      0x00\n        /* \"contract/Tomatrack.sol\":1700:1720  productsOfId[_id][0] */\n      dup2\n      sload\n      dup2\n      lt\n      tag_53\n      jumpi\n      tag_54\n      tag_34\n      jump\t// in\n    tag_54:\n    tag_53:\n      swap1\n      0x00\n      mstore\n      keccak256(0x00, 0x20)\n      swap1\n      0x06\n      mul\n      add\n        /* \"contract/Tomatrack.sol\":1678:1720  Product memory prod = productsOfId[_id][0] */\n      mload(0x40)\n      dup1\n      0xc0\n      add\n      0x40\n      mstore\n      swap1\n      dup2\n      0x00\n      dup3\n      add\n      sload\n      dup2\n      mstore\n      0x20\n      add\n      0x01\n      dup3\n      add\n      dup1\n      sload\n      tag_56\n      swap1\n      tag_57\n      jump\t// in\n    tag_56:\n      dup1\n      0x1f\n      add\n      0x20\n      dup1\n      swap2\n      div\n      mul\n      0x20\n      add\n      mload(0x40)\n      swap1\n      dup2\n      add\n      0x40\n      mstore\n      dup1\n      swap3\n      swap2\n      swap1\n      dup2\n      dup2\n      mstore\n      0x20\n      add\n      dup3\n      dup1\n      sload\n      tag_58\n      swap1\n      tag_57\n      jump\t// in\n    tag_58:\n      dup1\n      iszero\n      tag_59\n      jumpi\n      dup1\n      0x1f\n      lt\n      tag_60\n      jumpi\n      0x0100\n      dup1\n      dup4\n      sload\n      div\n      mul\n      dup4\n      mstore\n      swap2\n      0x20\n      add\n      swap2\n      jump(tag_59)\n    tag_60:\n      dup3\n      add\n      swap2\n      swap1\n      0x00\n      mstore\n      keccak256(0x00, 0x20)\n      swap1\n    tag_61:\n      dup2\n      sload\n      dup2\n      mstore\n      swap1\n      0x01\n      add\n      swap1\n      0x20\n      add\n      dup1\n      dup4\n      gt\n      tag_61\n      jumpi\n      dup3\n      swap1\n      sub\n      0x1f\n      and\n      dup3\n      add\n      swap2\n    tag_59:\n      pop\n      pop\n      pop\n      pop\n      pop\n      dup2\n      mstore\n      0x20\n      add\n      0x02\n      dup3\n      add\n      sload\n      dup2\n      mstore\n      0x20\n      add\n      0x03\n      dup3\n      add\n      sload\n      dup2\n      mstore\n      0x20\n      add\n      0x04\n      dup3\n      add\n      dup1\n      sload\n      tag_62\n      swap1\n      tag_57\n      jump\t// in\n    tag_62:\n      dup1\n      0x1f\n      add\n      0x20\n      dup1\n      swap2\n      div\n      mul\n      0x20\n      add\n      mload(0x40)\n      swap1\n      dup2\n      add\n      0x40\n      mstore\n      dup1\n      swap3\n      swap2\n      swap1\n      dup2\n      dup2\n      mstore\n      0x20\n      add\n      dup3\n      dup1\n      sload\n      tag_63\n      swap1\n      tag_57\n      jump\t// in\n    tag_63:\n      dup1\n      iszero\n      tag_64\n      jumpi\n      dup1\n      0x1f\n      lt\n      tag_65\n      jumpi\n      0x0100\n      dup1\n      dup4\n      sload\n      div\n      mul\n      dup4\n      mstore\n      swap2\n      0x20\n      add\n      swap2\n      jump(tag_64)\n    tag_65:\n      dup3\n      add\n      swap2\n      swap1\n      0x00\n      mstore\n      keccak256(0x00, 0x20)\n      swap1\n    tag_66:\n      dup2\n      sload\n      dup2\n      mstore\n      swap1\n      0x01\n      add\n      swap1\n      0x20\n      add\n      dup1\n      dup4\n      gt\n      tag_66\n      jumpi\n      dup3\n      swap1\n      sub\n      0x1f\n      and\n      dup3\n      add\n      swap2\n    tag_64:\n      pop\n      pop\n      pop\n      pop\n      pop\n      dup2\n      mstore\n      0x20\n      add\n      0x05\n      dup3\n      add\n      0x00\n      swap1\n      sload\n      swap1\n      0x0100\n      exp\n      swap1\n      div\n      0xffffffffffffffffffffffffffffffffffffffff\n      and\n      0xffffffffffffffffffffffffffffffffffffffff\n      and\n      0xffffffffffffffffffffffffffffffffffffffff\n      and\n      dup2\n      mstore\n      pop\n      pop\n      swap1\n      pop\n        /* \"contract/Tomatrack.sol\":1738:1742  prod */\n      dup1\n        /* \"contract/Tomatrack.sol\":1738:1745  prod.id */\n      0x00\n      add\n      mload\n        /* \"contract/Tomatrack.sol\":1747:1751  prod */\n      dup2\n        /* \"contract/Tomatrack.sol\":1747:1757  prod.price */\n      0x60\n      add\n      mload\n        /* \"contract/Tomatrack.sol\":1759:1763  prod */\n      dup3\n        /* \"contract/Tomatrack.sol\":1759:1771  prod.variety */\n      0x80\n      add\n      mload\n        /* \"contract/Tomatrack.sol\":1773:1777  prod */\n      dup4\n        /* \"contract/Tomatrack.sol\":1773:1791  prod.dateOfHarvest */\n      0x20\n      add\n      mload\n        /* \"contract/Tomatrack.sol\":1731:1792  return(prod.id, prod.price, prod.variety, prod.dateOfHarvest) */\n      swap5\n      pop\n      swap5\n      pop\n      swap5\n      pop\n      swap5\n      pop\n      pop\n        /* \"contract/Tomatrack.sol\":1565:1800  function getProduct(uint256 _id) view public returns( uint256, uint256, string memory, string memory) {... */\n      swap2\n      swap4\n      pop\n      swap2\n      swap4\n      jump\t// out\n    tag_24:\n      mload(0x40)\n      dup1\n      0xc0\n      add\n      0x40\n      mstore\n      dup1\n      0x00\n      dup2\n      mstore\n      0x20\n      add\n      0x60\n      dup2\n      mstore\n      0x20\n      add\n      0x00\n      dup2\n      mstore\n      0x20\n      add\n      0x00\n      dup2\n      mstore\n      0x20\n      add\n      0x60\n      dup2\n      mstore\n      0x20\n      add\n      and(0xffffffffffffffffffffffffffffffffffffffff, 0x00)\n      dup2\n      mstore\n      pop\n      swap1\n      jump\t// out\n        /* \"#utility.yul\":7:82   */\n    tag_67:\n        /* \"#utility.yul\":40:46   */\n      0x00\n        /* \"#utility.yul\":73:75   */\n      0x40\n        /* \"#utility.yul\":67:76   */\n      mload\n        /* \"#utility.yul\":57:76   */\n      swap1\n      pop\n        /* \"#utility.yul\":7:82   */\n      swap1\n      jump\t// out\n        /* \"#utility.yul\":88:205   */\n    tag_68:\n        /* \"#utility.yul\":197:198   */\n      0x00\n        /* \"#utility.yul\":194:195   */\n      dup1\n        /* \"#utility.yul\":187:199   */\n      revert\n        /* \"#utility.yul\":211:328   */\n    tag_69:\n        /* \"#utility.yul\":320:321   */\n      0x00\n        /* \"#utility.yul\":317:318   */\n      dup1\n        /* \"#utility.yul\":310:322   */\n      revert\n        /* \"#utility.yul\":334:411   */\n    tag_70:\n        /* \"#utility.yul\":371:378   */\n      0x00\n        /* \"#utility.yul\":400:405   */\n      dup2\n        /* \"#utility.yul\":389:405   */\n      swap1\n      pop\n        /* \"#utility.yul\":334:411   */\n      swap2\n      swap1\n      pop\n      jump\t// out\n        /* \"#utility.yul\":417:539   */\n    tag_71:\n        /* \"#utility.yul\":490:514   */\n      tag_125\n        /* \"#utility.yul\":508:513   */\n      dup2\n        /* \"#utility.yul\":490:514   */\n      tag_70\n      jump\t// in\n    tag_125:\n        /* \"#utility.yul\":483:488   */\n      dup2\n        /* \"#utility.yul\":480:515   */\n      eq\n        /* \"#utility.yul\":470:533   */\n      tag_126\n      jumpi\n        /* \"#utility.yul\":529:530   */\n      0x00\n        /* \"#utility.yul\":526:527   */\n      dup1\n        /* \"#utility.yul\":519:531   */\n      revert\n        /* \"#utility.yul\":470:533   */\n    tag_126:\n        /* \"#utility.yul\":417:539   */\n      pop\n      jump\t// out\n        /* \"#utility.yul\":545:684   */\n    tag_72:\n        /* \"#utility.yul\":591:596   */\n      0x00\n        /* \"#utility.yul\":629:635   */\n      dup2\n        /* \"#utility.yul\":616:636   */\n      calldataload\n        /* \"#utility.yul\":607:636   */\n      swap1\n      pop\n        /* \"#utility.yul\":645:678   */\n      tag_128\n        /* \"#utility.yul\":672:677   */\n      dup2\n        /* \"#utility.yul\":645:678   */\n      tag_71\n      jump\t// in\n    tag_128:\n        /* \"#utility.yul\":545:684   */\n      swap3\n      swap2\n      pop\n      pop\n      jump\t// out\n        /* \"#utility.yul\":690:807   */\n    tag_73:\n        /* \"#utility.yul\":799:800   */\n      0x00\n        /* \"#utility.yul\":796:797   */\n      dup1\n        /* \"#utility.yul\":789:801   */\n      revert\n        /* \"#utility.yul\":813:930   */\n    tag_74:\n        /* \"#utility.yul\":922:923   */\n      0x00\n        /* \"#utility.yul\":919:920   */\n      dup1\n        /* \"#utility.yul\":912:924   */\n      revert\n        /* \"#utility.yul\":936:1038   */\n    tag_75:\n        /* \"#utility.yul\":977:983   */\n      0x00\n        /* \"#utility.yul\":1028:1030   */\n      0x1f\n        /* \"#utility.yul\":1024:1031   */\n      not\n        /* \"#utility.yul\":1019:1021   */\n      0x1f\n        /* \"#utility.yul\":1012:1017   */\n      dup4\n        /* \"#utility.yul\":1008:1022   */\n      add\n        /* \"#utility.yul\":1004:1032   */\n      and\n        /* \"#utility.yul\":994:1032   */\n      swap1\n      pop\n        /* \"#utility.yul\":936:1038   */\n      swap2\n      swap1\n      pop\n      jump\t// out\n        /* \"#utility.yul\":1044:1224   */\n    tag_76:\n        /* \"#utility.yul\":1092:1169   */\n      0x4e487b7100000000000000000000000000000000000000000000000000000000\n        /* \"#utility.yul\":1089:1090   */\n      0x00\n        /* \"#utility.yul\":1082:1170   */\n      mstore\n        /* \"#utility.yul\":1189:1193   */\n      0x41\n        /* \"#utility.yul\":1186:1187   */\n      0x04\n        /* \"#utility.yul\":1179:1194   */\n      mstore\n        /* \"#utility.yul\":1213:1217   */\n      0x24\n        /* \"#utility.yul\":1210:1211   */\n      0x00\n        /* \"#utility.yul\":1203:1218   */\n      revert\n        /* \"#utility.yul\":1230:1511   */\n    tag_77:\n        /* \"#utility.yul\":1313:1340   */\n      tag_134\n        /* \"#utility.yul\":1335:1339   */\n      dup3\n        /* \"#utility.yul\":1313:1340   */\n      tag_75\n      jump\t// in\n    tag_134:\n        /* \"#utility.yul\":1305:1311   */\n      dup2\n        /* \"#utility.yul\":1301:1341   */\n      add\n        /* \"#utility.yul\":1443:1449   */\n      dup2\n        /* \"#utility.yul\":1431:1441   */\n      dup2\n        /* \"#utility.yul\":1428:1450   */\n      lt\n        /* \"#utility.yul\":1407:1425   */\n      0xffffffffffffffff\n        /* \"#utility.yul\":1395:1405   */\n      dup3\n        /* \"#utility.yul\":1392:1426   */\n      gt\n        /* \"#utility.yul\":1389:1451   */\n      or\n        /* \"#utility.yul\":1386:1474   */\n      iszero\n      tag_135\n      jumpi\n        /* \"#utility.yul\":1454:1472   */\n      tag_136\n      tag_76\n      jump\t// in\n    tag_136:\n        /* \"#utility.yul\":1386:1474   */\n    tag_135:\n        /* \"#utility.yul\":1494:1504   */\n      dup1\n        /* \"#utility.yul\":1490:1492   */\n      0x40\n        /* \"#utility.yul\":1483:1505   */\n      mstore\n        /* \"#utility.yul\":1273:1511   */\n      pop\n        /* \"#utility.yul\":1230:1511   */\n      pop\n      pop\n      jump\t// out\n        /* \"#utility.yul\":1517:1646   */\n    tag_78:\n        /* \"#utility.yul\":1551:1557   */\n      0x00\n        /* \"#utility.yul\":1578:1598   */\n      tag_138\n      tag_67\n      jump\t// in\n    tag_138:\n        /* \"#utility.yul\":1568:1598   */\n      swap1\n      pop\n        /* \"#utility.yul\":1607:1640   */\n      tag_139\n        /* \"#utility.yul\":1635:1639   */\n      dup3\n        /* \"#utility.yul\":1627:1633   */\n      dup3\n        /* \"#utility.yul\":1607:1640   */\n      tag_77\n      jump\t// in\n    tag_139:\n        /* \"#utility.yul\":1517:1646   */\n      swap2\n      swap1\n      pop\n      jump\t// out\n        /* \"#utility.yul\":1652:1960   */\n    tag_79:\n        /* \"#utility.yul\":1714:1718   */\n      0x00\n        /* \"#utility.yul\":1804:1822   */\n      0xffffffffffffffff\n        /* \"#utility.yul\":1796:1802   */\n      dup3\n        /* \"#utility.yul\":1793:1823   */\n      gt\n        /* \"#utility.yul\":1790:1846   */\n      iszero\n      tag_141\n      jumpi\n        /* \"#utility.yul\":1826:1844   */\n      tag_142\n      tag_76\n      jump\t// in\n    tag_142:\n        /* \"#utility.yul\":1790:1846   */\n    tag_141:\n        /* \"#utility.yul\":1864:1893   */\n      tag_143\n        /* \"#utility.yul\":1886:1892   */\n      dup3\n        /* \"#utility.yul\":1864:1893   */\n      tag_75\n      jump\t// in\n    tag_143:\n        /* \"#utility.yul\":1856:1893   */\n      swap1\n      pop\n        /* \"#utility.yul\":1948:1952   */\n      0x20\n        /* \"#utility.yul\":1942:1946   */\n      dup2\n        /* \"#utility.yul\":1938:1953   */\n      add\n        /* \"#utility.yul\":1930:1953   */\n      swap1\n      pop\n        /* \"#utility.yul\":1652:1960   */\n      swap2\n      swap1\n      pop\n      jump\t// out\n        /* \"#utility.yul\":1966:2112   */\n    tag_80:\n        /* \"#utility.yul\":2063:2069   */\n      dup3\n        /* \"#utility.yul\":2058:2061   */\n      dup2\n        /* \"#utility.yul\":2053:2056   */\n      dup4\n        /* \"#utility.yul\":2040:2070   */\n      calldatacopy\n        /* \"#utility.yul\":2104:2105   */\n      0x00\n        /* \"#utility.yul\":2095:2101   */\n      dup4\n        /* \"#utility.yul\":2090:2093   */\n      dup4\n        /* \"#utility.yul\":2086:2102   */\n      add\n        /* \"#utility.yul\":2079:2106   */\n      mstore\n        /* \"#utility.yul\":1966:2112   */\n      pop\n      pop\n      pop\n      jump\t// out\n        /* \"#utility.yul\":2118:2543   */\n    tag_81:\n        /* \"#utility.yul\":2196:2201   */\n      0x00\n        /* \"#utility.yul\":2221:2287   */\n      tag_146\n        /* \"#utility.yul\":2237:2286   */\n      tag_147\n        /* \"#utility.yul\":2279:2285   */\n      dup5\n        /* \"#utility.yul\":2237:2286   */\n      tag_79\n      jump\t// in\n    tag_147:\n        /* \"#utility.yul\":2221:2287   */\n      tag_78\n      jump\t// in\n    tag_146:\n        /* \"#utility.yul\":2212:2287   */\n      swap1\n      pop\n        /* \"#utility.yul\":2310:2316   */\n      dup3\n        /* \"#utility.yul\":2303:2308   */\n      dup2\n        /* \"#utility.yul\":2296:2317   */\n      mstore\n        /* \"#utility.yul\":2348:2352   */\n      0x20\n        /* \"#utility.yul\":2341:2346   */\n      dup2\n        /* \"#utility.yul\":2337:2353   */\n      add\n        /* \"#utility.yul\":2386:2389   */\n      dup5\n        /* \"#utility.yul\":2377:2383   */\n      dup5\n        /* \"#utility.yul\":2372:2375   */\n      dup5\n        /* \"#utility.yul\":2368:2384   */\n      add\n        /* \"#utility.yul\":2365:2390   */\n      gt\n        /* \"#utility.yul\":2362:2474   */\n      iszero\n      tag_148\n      jumpi\n        /* \"#utility.yul\":2393:2472   */\n      tag_149\n      tag_74\n      jump\t// in\n    tag_149:\n        /* \"#utility.yul\":2362:2474   */\n    tag_148:\n        /* \"#utility.yul\":2483:2537   */\n      tag_150\n        /* \"#utility.yul\":2530:2536   */\n      dup5\n        /* \"#utility.yul\":2525:2528   */\n      dup3\n        /* \"#utility.yul\":2520:2523   */\n      dup6\n        /* \"#utility.yul\":2483:2537   */\n      tag_80\n      jump\t// in\n    tag_150:\n        /* \"#utility.yul\":2202:2543   */\n      pop\n        /* \"#utility.yul\":2118:2543   */\n      swap4\n      swap3\n      pop\n      pop\n      pop\n      jump\t// out\n        /* \"#utility.yul\":2563:2903   */\n    tag_82:\n        /* \"#utility.yul\":2619:2624   */\n      0x00\n        /* \"#utility.yul\":2668:2671   */\n      dup3\n        /* \"#utility.yul\":2661:2665   */\n      0x1f\n        /* \"#utility.yul\":2653:2659   */\n      dup4\n        /* \"#utility.yul\":2649:2666   */\n      add\n        /* \"#utility.yul\":2645:2672   */\n      slt\n        /* \"#utility.yul\":2635:2757   */\n      tag_152\n      jumpi\n        /* \"#utility.yul\":2676:2755   */\n      tag_153\n      tag_73\n      jump\t// in\n    tag_153:\n        /* \"#utility.yul\":2635:2757   */\n    tag_152:\n        /* \"#utility.yul\":2793:2799   */\n      dup2\n        /* \"#utility.yul\":2780:2800   */\n      calldataload\n        /* \"#utility.yul\":2818:2897   */\n      tag_154\n        /* \"#utility.yul\":2893:2896   */\n      dup5\n        /* \"#utility.yul\":2885:2891   */\n      dup3\n        /* \"#utility.yul\":2878:2882   */\n      0x20\n        /* \"#utility.yul\":2870:2876   */\n      dup7\n        /* \"#utility.yul\":2866:2883   */\n      add\n        /* \"#utility.yul\":2818:2897   */\n      tag_81\n      jump\t// in\n    tag_154:\n        /* \"#utility.yul\":2809:2897   */\n      swap2\n      pop\n        /* \"#utility.yul\":2625:2903   */\n      pop\n        /* \"#utility.yul\":2563:2903   */\n      swap3\n      swap2\n      pop\n      pop\n      jump\t// out\n        /* \"#utility.yul\":2909:3035   */\n    tag_83:\n        /* \"#utility.yul\":2946:2953   */\n      0x00\n        /* \"#utility.yul\":2986:3028   */\n      0xffffffffffffffffffffffffffffffffffffffff\n        /* \"#utility.yul\":2979:2984   */\n      dup3\n        /* \"#utility.yul\":2975:3029   */\n      and\n        /* \"#utility.yul\":2964:3029   */\n      swap1\n      pop\n        /* \"#utility.yul\":2909:3035   */\n      swap2\n      swap1\n      pop\n      jump\t// out\n        /* \"#utility.yul\":3041:3145   */\n    tag_84:\n        /* \"#utility.yul\":3086:3093   */\n      0x00\n        /* \"#utility.yul\":3115:3139   */\n      tag_157\n        /* \"#utility.yul\":3133:3138   */\n      dup3\n        /* \"#utility.yul\":3115:3139   */\n      tag_83\n      jump\t// in\n    tag_157:\n        /* \"#utility.yul\":3104:3139   */\n      swap1\n      pop\n        /* \"#utility.yul\":3041:3145   */\n      swap2\n      swap1\n      pop\n      jump\t// out\n        /* \"#utility.yul\":3151:3289   */\n    tag_85:\n        /* \"#utility.yul\":3232:3264   */\n      tag_159\n        /* \"#utility.yul\":3258:3263   */\n      dup2\n        /* \"#utility.yul\":3232:3264   */\n      tag_84\n      jump\t// in\n    tag_159:\n        /* \"#utility.yul\":3225:3230   */\n      dup2\n        /* \"#utility.yul\":3222:3265   */\n      eq\n        /* \"#utility.yul\":3212:3283   */\n      tag_160\n      jumpi\n        /* \"#utility.yul\":3279:3280   */\n      0x00\n        /* \"#utility.yul\":3276:3277   */\n      dup1\n        /* \"#utility.yul\":3269:3281   */\n      revert\n        /* \"#utility.yul\":3212:3283   */\n    tag_160:\n        /* \"#utility.yul\":3151:3289   */\n      pop\n      jump\t// out\n        /* \"#utility.yul\":3295:3450   */\n    tag_86:\n        /* \"#utility.yul\":3349:3354   */\n      0x00\n        /* \"#utility.yul\":3387:3393   */\n      dup2\n        /* \"#utility.yul\":3374:3394   */\n      calldataload\n        /* \"#utility.yul\":3365:3394   */\n      swap1\n      pop\n        /* \"#utility.yul\":3403:3444   */\n      tag_162\n        /* \"#utility.yul\":3438:3443   */\n      dup2\n        /* \"#utility.yul\":3403:3444   */\n      tag_85\n      jump\t// in\n    tag_162:\n        /* \"#utility.yul\":3295:3450   */\n      swap3\n      swap2\n      pop\n      pop\n      jump\t// out\n        /* \"#utility.yul\":3456:4743   */\n    tag_8:\n        /* \"#utility.yul\":3579:3585   */\n      0x00\n        /* \"#utility.yul\":3587:3593   */\n      dup1\n        /* \"#utility.yul\":3595:3601   */\n      0x00\n        /* \"#utility.yul\":3603:3609   */\n      dup1\n        /* \"#utility.yul\":3611:3617   */\n      0x00\n        /* \"#utility.yul\":3660:3663   */\n      0xa0\n        /* \"#utility.yul\":3648:3657   */\n      dup7\n        /* \"#utility.yul\":3639:3646   */\n      dup9\n        /* \"#utility.yul\":3635:3658   */\n      sub\n        /* \"#utility.yul\":3631:3664   */\n      slt\n        /* \"#utility.yul\":3628:3748   */\n      iszero\n      tag_164\n      jumpi\n        /* \"#utility.yul\":3667:3746   */\n      tag_165\n      tag_68\n      jump\t// in\n    tag_165:\n        /* \"#utility.yul\":3628:3748   */\n    tag_164:\n        /* \"#utility.yul\":3787:3788   */\n      0x00\n        /* \"#utility.yul\":3812:3865   */\n      tag_166\n        /* \"#utility.yul\":3857:3864   */\n      dup9\n        /* \"#utility.yul\":3848:3854   */\n      dup3\n        /* \"#utility.yul\":3837:3846   */\n      dup10\n        /* \"#utility.yul\":3833:3855   */\n      add\n        /* \"#utility.yul\":3812:3865   */\n      tag_72\n      jump\t// in\n    tag_166:\n        /* \"#utility.yul\":3802:3865   */\n      swap6\n      pop\n        /* \"#utility.yul\":3758:3875   */\n      pop\n        /* \"#utility.yul\":3942:3944   */\n      0x20\n        /* \"#utility.yul\":3931:3940   */\n      dup7\n        /* \"#utility.yul\":3927:3945   */\n      add\n        /* \"#utility.yul\":3914:3946   */\n      calldataload\n        /* \"#utility.yul\":3973:3991   */\n      0xffffffffffffffff\n        /* \"#utility.yul\":3965:3971   */\n      dup2\n        /* \"#utility.yul\":3962:3992   */\n      gt\n        /* \"#utility.yul\":3959:4076   */\n      iszero\n      tag_167\n      jumpi\n        /* \"#utility.yul\":3995:4074   */\n      tag_168\n      tag_69\n      jump\t// in\n    tag_168:\n        /* \"#utility.yul\":3959:4076   */\n    tag_167:\n        /* \"#utility.yul\":4100:4163   */\n      tag_169\n        /* \"#utility.yul\":4155:4162   */\n      dup9\n        /* \"#utility.yul\":4146:4152   */\n      dup3\n        /* \"#utility.yul\":4135:4144   */\n      dup10\n        /* \"#utility.yul\":4131:4153   */\n      add\n        /* \"#utility.yul\":4100:4163   */\n      tag_82\n      jump\t// in\n    tag_169:\n        /* \"#utility.yul\":4090:4163   */\n      swap5\n      pop\n        /* \"#utility.yul\":3885:4173   */\n      pop\n        /* \"#utility.yul\":4212:4214   */\n      0x40\n        /* \"#utility.yul\":4238:4291   */\n      tag_170\n        /* \"#utility.yul\":4283:4290   */\n      dup9\n        /* \"#utility.yul\":4274:4280   */\n      dup3\n        /* \"#utility.yul\":4263:4272   */\n      dup10\n        /* \"#utility.yul\":4259:4281   */\n      add\n        /* \"#utility.yul\":4238:4291   */\n      tag_72\n      jump\t// in\n    tag_170:\n        /* \"#utility.yul\":4228:4291   */\n      swap4\n      pop\n        /* \"#utility.yul\":4183:4301   */\n      pop\n        /* \"#utility.yul\":4368:4370   */\n      0x60\n        /* \"#utility.yul\":4357:4366   */\n      dup7\n        /* \"#utility.yul\":4353:4371   */\n      add\n        /* \"#utility.yul\":4340:4372   */\n      calldataload\n        /* \"#utility.yul\":4399:4417   */\n      0xffffffffffffffff\n        /* \"#utility.yul\":4391:4397   */\n      dup2\n        /* \"#utility.yul\":4388:4418   */\n      gt\n        /* \"#utility.yul\":4385:4502   */\n      iszero\n      tag_171\n      jumpi\n        /* \"#utility.yul\":4421:4500   */\n      tag_172\n      tag_69\n      jump\t// in\n    tag_172:\n        /* \"#utility.yul\":4385:4502   */\n    tag_171:\n        /* \"#utility.yul\":4526:4589   */\n      tag_173\n        /* \"#utility.yul\":4581:4588   */\n      dup9\n        /* \"#utility.yul\":4572:4578   */\n      dup3\n        /* \"#utility.yul\":4561:4570   */\n      dup10\n        /* \"#utility.yul\":4557:4579   */\n      add\n        /* \"#utility.yul\":4526:4589   */\n      tag_82\n      jump\t// in\n    tag_173:\n        /* \"#utility.yul\":4516:4589   */\n      swap3\n      pop\n        /* \"#utility.yul\":4311:4599   */\n      pop\n        /* \"#utility.yul\":4638:4641   */\n      0x80\n        /* \"#utility.yul\":4665:4726   */\n      tag_174\n        /* \"#utility.yul\":4718:4725   */\n      dup9\n        /* \"#utility.yul\":4709:4715   */\n      dup3\n        /* \"#utility.yul\":4698:4707   */\n      dup10\n        /* \"#utility.yul\":4694:4716   */\n      add\n        /* \"#utility.yul\":4665:4726   */\n      tag_86\n      jump\t// in\n    tag_174:\n        /* \"#utility.yul\":4655:4726   */\n      swap2\n      pop\n        /* \"#utility.yul\":4609:4736   */\n      pop\n        /* \"#utility.yul\":3456:4743   */\n      swap3\n      swap6\n      pop\n      swap3\n      swap6\n      swap1\n      swap4\n      pop\n      jump\t// out\n        /* \"#utility.yul\":4749:5078   */\n    tag_12:\n        /* \"#utility.yul\":4808:4814   */\n      0x00\n        /* \"#utility.yul\":4857:4859   */\n      0x20\n        /* \"#utility.yul\":4845:4854   */\n      dup3\n        /* \"#utility.yul\":4836:4843   */\n      dup5\n        /* \"#utility.yul\":4832:4855   */\n      sub\n        /* \"#utility.yul\":4828:4860   */\n      slt\n        /* \"#utility.yul\":4825:4944   */\n      iszero\n      tag_176\n      jumpi\n        /* \"#utility.yul\":4863:4942   */\n      tag_177\n      tag_68\n      jump\t// in\n    tag_177:\n        /* \"#utility.yul\":4825:4944   */\n    tag_176:\n        /* \"#utility.yul\":4983:4984   */\n      0x00\n        /* \"#utility.yul\":5008:5061   */\n      tag_178\n        /* \"#utility.yul\":5053:5060   */\n      dup5\n        /* \"#utility.yul\":5044:5050   */\n      dup3\n        /* \"#utility.yul\":5033:5042   */\n      dup6\n        /* \"#utility.yul\":5029:5051   */\n      add\n        /* \"#utility.yul\":5008:5061   */\n      tag_72\n      jump\t// in\n    tag_178:\n        /* \"#utility.yul\":4998:5061   */\n      swap2\n      pop\n        /* \"#utility.yul\":4954:5071   */\n      pop\n        /* \"#utility.yul\":4749:5078   */\n      swap3\n      swap2\n      pop\n      pop\n      jump\t// out\n        /* \"#utility.yul\":5084:5174   */\n    tag_87:\n        /* \"#utility.yul\":5118:5125   */\n      0x00\n        /* \"#utility.yul\":5161:5166   */\n      dup2\n        /* \"#utility.yul\":5154:5167   */\n      iszero\n        /* \"#utility.yul\":5147:5168   */\n      iszero\n        /* \"#utility.yul\":5136:5168   */\n      swap1\n      pop\n        /* \"#utility.yul\":5084:5174   */\n      swap2\n      swap1\n      pop\n      jump\t// out\n        /* \"#utility.yul\":5180:5289   */\n    tag_88:\n        /* \"#utility.yul\":5261:5282   */\n      tag_181\n        /* \"#utility.yul\":5276:5281   */\n      dup2\n        /* \"#utility.yul\":5261:5282   */\n      tag_87\n      jump\t// in\n    tag_181:\n        /* \"#utility.yul\":5256:5259   */\n      dup3\n        /* \"#utility.yul\":5249:5283   */\n      mstore\n        /* \"#utility.yul\":5180:5289   */\n      pop\n      pop\n      jump\t// out\n        /* \"#utility.yul\":5295:5505   */\n    tag_15:\n        /* \"#utility.yul\":5382:5386   */\n      0x00\n        /* \"#utility.yul\":5420:5422   */\n      0x20\n        /* \"#utility.yul\":5409:5418   */\n      dup3\n        /* \"#utility.yul\":5405:5423   */\n      add\n        /* \"#utility.yul\":5397:5423   */\n      swap1\n      pop\n        /* \"#utility.yul\":5433:5498   */\n      tag_183\n        /* \"#utility.yul\":5495:5496   */\n      0x00\n        /* \"#utility.yul\":5484:5493   */\n      dup4\n        /* \"#utility.yul\":5480:5497   */\n      add\n        /* \"#utility.yul\":5471:5477   */\n      dup5\n        /* \"#utility.yul\":5433:5498   */\n      tag_88\n      jump\t// in\n    tag_183:\n        /* \"#utility.yul\":5295:5505   */\n      swap3\n      swap2\n      pop\n      pop\n      jump\t// out\n        /* \"#utility.yul\":5511:5629   */\n    tag_89:\n        /* \"#utility.yul\":5598:5622   */\n      tag_185\n        /* \"#utility.yul\":5616:5621   */\n      dup2\n        /* \"#utility.yul\":5598:5622   */\n      tag_70\n      jump\t// in\n    tag_185:\n        /* \"#utility.yul\":5593:5596   */\n      dup3\n        /* \"#utility.yul\":5586:5623   */\n      mstore\n        /* \"#utility.yul\":5511:5629   */\n      pop\n      pop\n      jump\t// out\n        /* \"#utility.yul\":5635:5734   */\n    tag_90:\n        /* \"#utility.yul\":5687:5693   */\n      0x00\n        /* \"#utility.yul\":5721:5726   */\n      dup2\n        /* \"#utility.yul\":5715:5727   */\n      mload\n        /* \"#utility.yul\":5705:5727   */\n      swap1\n      pop\n        /* \"#utility.yul\":5635:5734   */\n      swap2\n      swap1\n      pop\n      jump\t// out\n        /* \"#utility.yul\":5740:5909   */\n    tag_91:\n        /* \"#utility.yul\":5824:5835   */\n      0x00\n        /* \"#utility.yul\":5858:5864   */\n      dup3\n        /* \"#utility.yul\":5853:5856   */\n      dup3\n        /* \"#utility.yul\":5846:5865   */\n      mstore\n        /* \"#utility.yul\":5898:5902   */\n      0x20\n        /* \"#utility.yul\":5893:5896   */\n      dup3\n        /* \"#utility.yul\":5889:5903   */\n      add\n        /* \"#utility.yul\":5874:5903   */\n      swap1\n      pop\n        /* \"#utility.yul\":5740:5909   */\n      swap3\n      swap2\n      pop\n      pop\n      jump\t// out\n        /* \"#utility.yul\":5915:6161   */\n    tag_92:\n        /* \"#utility.yul\":5996:5997   */\n      0x00\n        /* \"#utility.yul\":6006:6119   */\n    tag_189:\n        /* \"#utility.yul\":6020:6026   */\n      dup4\n        /* \"#utility.yul\":6017:6018   */\n      dup2\n        /* \"#utility.yul\":6014:6027   */\n      lt\n        /* \"#utility.yul\":6006:6119   */\n      iszero\n      tag_191\n      jumpi\n        /* \"#utility.yul\":6105:6106   */\n      dup1\n        /* \"#utility.yul\":6100:6103   */\n      dup3\n        /* \"#utility.yul\":6096:6107   */\n      add\n        /* \"#utility.yul\":6090:6108   */\n      mload\n        /* \"#utility.yul\":6086:6087   */\n      dup2\n        /* \"#utility.yul\":6081:6084   */\n      dup5\n        /* \"#utility.yul\":6077:6088   */\n      add\n        /* \"#utility.yul\":6070:6109   */\n      mstore\n        /* \"#utility.yul\":6042:6044   */\n      0x20\n        /* \"#utility.yul\":6039:6040   */\n      dup2\n        /* \"#utility.yul\":6035:6045   */\n      add\n        /* \"#utility.yul\":6030:6045   */\n      swap1\n      pop\n        /* \"#utility.yul\":6006:6119   */\n      jump(tag_189)\n    tag_191:\n        /* \"#utility.yul\":6153:6154   */\n      0x00\n        /* \"#utility.yul\":6144:6150   */\n      dup5\n        /* \"#utility.yul\":6139:6142   */\n      dup5\n        /* \"#utility.yul\":6135:6151   */\n      add\n        /* \"#utility.yul\":6128:6155   */\n      mstore\n        /* \"#utility.yul\":5977:6161   */\n      pop\n        /* \"#utility.yul\":5915:6161   */\n      pop\n      pop\n      pop\n      jump\t// out\n        /* \"#utility.yul\":6167:6544   */\n    tag_93:\n        /* \"#utility.yul\":6255:6258   */\n      0x00\n        /* \"#utility.yul\":6283:6322   */\n      tag_193\n        /* \"#utility.yul\":6316:6321   */\n      dup3\n        /* \"#utility.yul\":6283:6322   */\n      tag_90\n      jump\t// in\n    tag_193:\n        /* \"#utility.yul\":6338:6409   */\n      tag_194\n        /* \"#utility.yul\":6402:6408   */\n      dup2\n        /* \"#utility.yul\":6397:6400   */\n      dup6\n        /* \"#utility.yul\":6338:6409   */\n      tag_91\n      jump\t// in\n    tag_194:\n        /* \"#utility.yul\":6331:6409   */\n      swap4\n      pop\n        /* \"#utility.yul\":6418:6483   */\n      tag_195\n        /* \"#utility.yul\":6476:6482   */\n      dup2\n        /* \"#utility.yul\":6471:6474   */\n      dup6\n        /* \"#utility.yul\":6464:6468   */\n      0x20\n        /* \"#utility.yul\":6457:6462   */\n      dup7\n        /* \"#utility.yul\":6453:6469   */\n      add\n        /* \"#utility.yul\":6418:6483   */\n      tag_92\n      jump\t// in\n    tag_195:\n        /* \"#utility.yul\":6508:6537   */\n      tag_196\n        /* \"#utility.yul\":6530:6536   */\n      dup2\n        /* \"#utility.yul\":6508:6537   */\n      tag_75\n      jump\t// in\n    tag_196:\n        /* \"#utility.yul\":6503:6506   */\n      dup5\n        /* \"#utility.yul\":6499:6538   */\n      add\n        /* \"#utility.yul\":6492:6538   */\n      swap2\n      pop\n        /* \"#utility.yul\":6259:6544   */\n      pop\n        /* \"#utility.yul\":6167:6544   */\n      swap3\n      swap2\n      pop\n      pop\n      jump\t// out\n        /* \"#utility.yul\":6550:7285   */\n    tag_21:\n        /* \"#utility.yul\":6767:6771   */\n      0x00\n        /* \"#utility.yul\":6805:6808   */\n      0x80\n        /* \"#utility.yul\":6794:6803   */\n      dup3\n        /* \"#utility.yul\":6790:6809   */\n      add\n        /* \"#utility.yul\":6782:6809   */\n      swap1\n      pop\n        /* \"#utility.yul\":6819:6890   */\n      tag_198\n        /* \"#utility.yul\":6887:6888   */\n      0x00\n        /* \"#utility.yul\":6876:6885   */\n      dup4\n        /* \"#utility.yul\":6872:6889   */\n      add\n        /* \"#utility.yul\":6863:6869   */\n      dup8\n        /* \"#utility.yul\":6819:6890   */\n      tag_89\n      jump\t// in\n    tag_198:\n        /* \"#utility.yul\":6900:6972   */\n      tag_199\n        /* \"#utility.yul\":6968:6970   */\n      0x20\n        /* \"#utility.yul\":6957:6966   */\n      dup4\n        /* \"#utility.yul\":6953:6971   */\n      add\n        /* \"#utility.yul\":6944:6950   */\n      dup7\n        /* \"#utility.yul\":6900:6972   */\n      tag_89\n      jump\t// in\n    tag_199:\n        /* \"#utility.yul\":7019:7028   */\n      dup2\n        /* \"#utility.yul\":7013:7017   */\n      dup2\n        /* \"#utility.yul\":7009:7029   */\n      sub\n        /* \"#utility.yul\":7004:7006   */\n      0x40\n        /* \"#utility.yul\":6993:7002   */\n      dup4\n        /* \"#utility.yul\":6989:7007   */\n      add\n        /* \"#utility.yul\":6982:7030   */\n      mstore\n        /* \"#utility.yul\":7047:7125   */\n      tag_200\n        /* \"#utility.yul\":7120:7124   */\n      dup2\n        /* \"#utility.yul\":7111:7117   */\n      dup6\n        /* \"#utility.yul\":7047:7125   */\n      tag_93\n      jump\t// in\n    tag_200:\n        /* \"#utility.yul\":7039:7125   */\n      swap1\n      pop\n        /* \"#utility.yul\":7172:7181   */\n      dup2\n        /* \"#utility.yul\":7166:7170   */\n      dup2\n        /* \"#utility.yul\":7162:7182   */\n      sub\n        /* \"#utility.yul\":7157:7159   */\n      0x60\n        /* \"#utility.yul\":7146:7155   */\n      dup4\n        /* \"#utility.yul\":7142:7160   */\n      add\n        /* \"#utility.yul\":7135:7183   */\n      mstore\n        /* \"#utility.yul\":7200:7278   */\n      tag_201\n        /* \"#utility.yul\":7273:7277   */\n      dup2\n        /* \"#utility.yul\":7264:7270   */\n      dup5\n        /* \"#utility.yul\":7200:7278   */\n      tag_93\n      jump\t// in\n    tag_201:\n        /* \"#utility.yul\":7192:7278   */\n      swap1\n      pop\n        /* \"#utility.yul\":6550:7285   */\n      swap6\n      swap5\n      pop\n      pop\n      pop\n      pop\n      pop\n      jump\t// out\n        /* \"#utility.yul\":7291:7471   */\n    tag_94:\n        /* \"#utility.yul\":7339:7416   */\n      0x4e487b7100000000000000000000000000000000000000000000000000000000\n        /* \"#utility.yul\":7336:7337   */\n      0x00\n        /* \"#utility.yul\":7329:7417   */\n      mstore\n        /* \"#utility.yul\":7436:7440   */\n      0x22\n        /* \"#utility.yul\":7433:7434   */\n      0x04\n        /* \"#utility.yul\":7426:7441   */\n      mstore\n        /* \"#utility.yul\":7460:7464   */\n      0x24\n        /* \"#utility.yul\":7457:7458   */\n      0x00\n        /* \"#utility.yul\":7450:7465   */\n      revert\n        /* \"#utility.yul\":7477:7797   */\n    tag_57:\n        /* \"#utility.yul\":7521:7527   */\n      0x00\n        /* \"#utility.yul\":7558:7559   */\n      0x02\n        /* \"#utility.yul\":7552:7556   */\n      dup3\n        /* \"#utility.yul\":7548:7560   */\n      div\n        /* \"#utility.yul\":7538:7560   */\n      swap1\n      pop\n        /* \"#utility.yul\":7605:7606   */\n      0x01\n        /* \"#utility.yul\":7599:7603   */\n      dup3\n        /* \"#utility.yul\":7595:7607   */\n      and\n        /* \"#utility.yul\":7626:7644   */\n      dup1\n        /* \"#utility.yul\":7616:7697   */\n      tag_204\n      jumpi\n        /* \"#utility.yul\":7682:7686   */\n      0x7f\n        /* \"#utility.yul\":7674:7680   */\n      dup3\n        /* \"#utility.yul\":7670:7687   */\n      and\n        /* \"#utility.yul\":7660:7687   */\n      swap2\n      pop\n        /* \"#utility.yul\":7616:7697   */\n    tag_204:\n        /* \"#utility.yul\":7744:7746   */\n      0x20\n        /* \"#utility.yul\":7736:7742   */\n      dup3\n        /* \"#utility.yul\":7733:7747   */\n      lt\n        /* \"#utility.yul\":7713:7731   */\n      dup2\n        /* \"#utility.yul\":7710:7748   */\n      sub\n        /* \"#utility.yul\":7707:7791   */\n      tag_205\n      jumpi\n        /* \"#utility.yul\":7763:7781   */\n      tag_206\n      tag_94\n      jump\t// in\n    tag_206:\n        /* \"#utility.yul\":7707:7791   */\n    tag_205:\n        /* \"#utility.yul\":7528:7797   */\n      pop\n        /* \"#utility.yul\":7477:7797   */\n      swap2\n      swap1\n      pop\n      jump\t// out\n        /* \"#utility.yul\":7803:7944   */\n    tag_95:\n        /* \"#utility.yul\":7852:7856   */\n      0x00\n        /* \"#utility.yul\":7875:7878   */\n      dup2\n        /* \"#utility.yul\":7867:7878   */\n      swap1\n      pop\n        /* \"#utility.yul\":7898:7901   */\n      dup2\n        /* \"#utility.yul\":7895:7896   */\n      0x00\n        /* \"#utility.yul\":7888:7902   */\n      mstore\n        /* \"#utility.yul\":7932:7936   */\n      0x20\n        /* \"#utility.yul\":7929:7930   */\n      0x00\n        /* \"#utility.yul\":7919:7937   */\n      keccak256\n        /* \"#utility.yul\":7911:7937   */\n      swap1\n      pop\n        /* \"#utility.yul\":7803:7944   */\n      swap2\n      swap1\n      pop\n      jump\t// out\n        /* \"#utility.yul\":7950:8043   */\n    tag_96:\n        /* \"#utility.yul\":7987:7993   */\n      0x00\n        /* \"#utility.yul\":8034:8036   */\n      0x20\n        /* \"#utility.yul\":8029:8031   */\n      0x1f\n        /* \"#utility.yul\":8022:8027   */\n      dup4\n        /* \"#utility.yul\":8018:8032   */\n      add\n        /* \"#utility.yul\":8014:8037   */\n      div\n        /* \"#utility.yul\":8004:8037   */\n      swap1\n      pop\n        /* \"#utility.yul\":7950:8043   */\n      swap2\n      swap1\n      pop\n      jump\t// out\n        /* \"#utility.yul\":8049:8156   */\n    tag_97:\n        /* \"#utility.yul\":8093:8101   */\n      0x00\n        /* \"#utility.yul\":8143:8148   */\n      dup3\n        /* \"#utility.yul\":8137:8141   */\n      dup3\n        /* \"#utility.yul\":8133:8149   */\n      shl\n        /* \"#utility.yul\":8112:8149   */\n      swap1\n      pop\n        /* \"#utility.yul\":8049:8156   */\n      swap3\n      swap2\n      pop\n      pop\n      jump\t// out\n        /* \"#utility.yul\":8162:8555   */\n    tag_98:\n        /* \"#utility.yul\":8231:8237   */\n      0x00\n        /* \"#utility.yul\":8281:8282   */\n      0x08\n        /* \"#utility.yul\":8269:8279   */\n      dup4\n        /* \"#utility.yul\":8265:8283   */\n      mul\n        /* \"#utility.yul\":8304:8401   */\n      tag_211\n        /* \"#utility.yul\":8334:8400   */\n      0xffffffffffffffffffffffffffffffffffffffffffffffffffffffffffffffff\n        /* \"#utility.yul\":8323:8332   */\n      dup3\n        /* \"#utility.yul\":8304:8401   */\n      tag_97\n      jump\t// in\n    tag_211:\n        /* \"#utility.yul\":8422:8461   */\n      tag_212\n        /* \"#utility.yul\":8452:8460   */\n      dup7\n        /* \"#utility.yul\":8441:8450   */\n      dup4\n        /* \"#utility.yul\":8422:8461   */\n      tag_97\n      jump\t// in\n    tag_212:\n        /* \"#utility.yul\":8410:8461   */\n      swap6\n      pop\n        /* \"#utility.yul\":8494:8498   */\n      dup1\n        /* \"#utility.yul\":8490:8499   */\n      not\n        /* \"#utility.yul\":8483:8488   */\n      dup5\n        /* \"#utility.yul\":8479:8500   */\n      and\n        /* \"#utility.yul\":8470:8500   */\n      swap4\n      pop\n        /* \"#utility.yul\":8543:8547   */\n      dup1\n        /* \"#utility.yul\":8533:8541   */\n      dup7\n        /* \"#utility.yul\":8529:8548   */\n      and\n        /* \"#utility.yul\":8522:8527   */\n      dup5\n        /* \"#utility.yul\":8519:8549   */\n      or\n        /* \"#utility.yul\":8509:8549   */\n      swap3\n      pop\n        /* \"#utility.yul\":8238:8555   */\n      pop\n      pop\n        /* \"#utility.yul\":8162:8555   */\n      swap4\n      swap3\n      pop\n      pop\n      pop\n      jump\t// out\n        /* \"#utility.yul\":8561:8621   */\n    tag_99:\n        /* \"#utility.yul\":8589:8592   */\n      0x00\n        /* \"#utility.yul\":8610:8615   */\n      dup2\n        /* \"#utility.yul\":8603:8615   */\n      swap1\n      pop\n        /* \"#utility.yul\":8561:8621   */\n      swap2\n      swap1\n      pop\n      jump\t// out\n        /* \"#utility.yul\":8627:8769   */\n    tag_100:\n        /* \"#utility.yul\":8677:8686   */\n      0x00\n        /* \"#utility.yul\":8710:8763   */\n      tag_215\n        /* \"#utility.yul\":8728:8762   */\n      tag_216\n        /* \"#utility.yul\":8737:8761   */\n      tag_217\n        /* \"#utility.yul\":8755:8760   */\n      dup5\n        /* \"#utility.yul\":8737:8761   */\n      tag_70\n      jump\t// in\n    tag_217:\n        /* \"#utility.yul\":8728:8762   */\n      tag_99\n      jump\t// in\n    tag_216:\n        /* \"#utility.yul\":8710:8763   */\n      tag_70\n      jump\t// in\n    tag_215:\n        /* \"#utility.yul\":8697:8763   */\n      swap1\n      pop\n        /* \"#utility.yul\":8627:8769   */\n      swap2\n      swap1\n      pop\n      jump\t// out\n        /* \"#utility.yul\":8775:8850   */\n    tag_101:\n        /* \"#utility.yul\":8818:8821   */\n      0x00\n        /* \"#utility.yul\":8839:8844   */\n      dup2\n        /* \"#utility.yul\":8832:8844   */\n      swap1\n      pop\n        /* \"#utility.yul\":8775:8850   */\n      swap2\n      swap1\n      pop\n      jump\t// out\n        /* \"#utility.yul\":8856:9125   */\n    tag_102:\n        /* \"#utility.yul\":8966:9005   */\n      tag_220\n        /* \"#utility.yul\":8997:9004   */\n      dup4\n        /* \"#utility.yul\":8966:9005   */\n      tag_100\n      jump\t// in\n    tag_220:\n        /* \"#utility.yul\":9027:9118   */\n      tag_221\n        /* \"#utility.yul\":9076:9117   */\n      tag_222\n        /* \"#utility.yul\":9100:9116   */\n      dup3\n        /* \"#utility.yul\":9076:9117   */\n      tag_101\n      jump\t// in\n    tag_222:\n        /* \"#utility.yul\":9068:9074   */\n      dup5\n        /* \"#utility.yul\":9061:9065   */\n      dup5\n        /* \"#utility.yul\":9055:9066   */\n      sload\n        /* \"#utility.yul\":9027:9118   */\n      tag_98\n      jump\t// in\n    tag_221:\n        /* \"#utility.yul\":9021:9025   */\n      dup3\n        /* \"#utility.yul\":9014:9119   */\n      sstore\n        /* \"#utility.yul\":8932:9125   */\n      pop\n        /* \"#utility.yul\":8856:9125   */\n      pop\n      pop\n      pop\n      jump\t// out\n        /* \"#utility.yul\":9131:9204   */\n    tag_103:\n        /* \"#utility.yul\":9176:9179   */\n      0x00\n        /* \"#utility.yul\":9131:9204   */\n      swap1\n      jump\t// out\n        /* \"#utility.yul\":9210:9399   */\n    tag_104:\n        /* \"#utility.yul\":9287:9319   */\n      tag_225\n      tag_103\n      jump\t// in\n    tag_225:\n        /* \"#utility.yul\":9328:9393   */\n      tag_226\n        /* \"#utility.yul\":9386:9392   */\n      dup2\n        /* \"#utility.yul\":9378:9384   */\n      dup5\n        /* \"#utility.yul\":9372:9376   */\n      dup5\n        /* \"#utility.yul\":9328:9393   */\n      tag_102\n      jump\t// in\n    tag_226:\n        /* \"#utility.yul\":9263:9399   */\n      pop\n        /* \"#utility.yul\":9210:9399   */\n      pop\n      pop\n      jump\t// out\n        /* \"#utility.yul\":9405:9591   */\n    tag_105:\n        /* \"#utility.yul\":9465:9585   */\n    tag_228:\n        /* \"#utility.yul\":9482:9485   */\n      dup2\n        /* \"#utility.yul\":9475:9480   */\n      dup2\n        /* \"#utility.yul\":9472:9486   */\n      lt\n        /* \"#utility.yul\":9465:9585   */\n      iszero\n      tag_230\n      jumpi\n        /* \"#utility.yul\":9536:9575   */\n      tag_231\n        /* \"#utility.yul\":9573:9574   */\n      0x00\n        /* \"#utility.yul\":9566:9571   */\n      dup3\n        /* \"#utility.yul\":9536:9575   */\n      tag_104\n      jump\t// in\n    tag_231:\n        /* \"#utility.yul\":9509:9510   */\n      0x01\n        /* \"#utility.yul\":9502:9507   */\n      dup2\n        /* \"#utility.yul\":9498:9511   */\n      add\n        /* \"#utility.yul\":9489:9511   */\n      swap1\n      pop\n        /* \"#utility.yul\":9465:9585   */\n      jump(tag_228)\n    tag_230:\n        /* \"#utility.yul\":9405:9591   */\n      pop\n      pop\n      jump\t// out\n        /* \"#utility.yul\":9597:10140   */\n    tag_106:\n        /* \"#utility.yul\":9698:9700   */\n      0x1f\n        /* \"#utility.yul\":9693:9696   */\n      dup3\n        /* \"#utility.yul\":9690:9701   */\n      gt\n        /* \"#utility.yul\":9687:10133   */\n      iszero\n      tag_233\n      jumpi\n        /* \"#utility.yul\":9732:9770   */\n      tag_234\n        /* \"#utility.yul\":9764:9769   */\n      dup2\n        /* \"#utility.yul\":9732:9770   */\n      tag_95\n      jump\t// in\n    tag_234:\n        /* \"#utility.yul\":9816:9845   */\n      tag_235\n        /* \"#utility.yul\":9834:9844   */\n      dup5\n        /* \"#utility.yul\":9816:9845   */\n      tag_96\n      jump\t// in\n    tag_235:\n        /* \"#utility.yul\":9806:9814   */\n      dup2\n        /* \"#utility.yul\":9802:9846   */\n      add\n        /* \"#utility.yul\":9999:10001   */\n      0x20\n        /* \"#utility.yul\":9987:9997   */\n      dup6\n        /* \"#utility.yul\":9984:10002   */\n      lt\n        /* \"#utility.yul\":9981:10030   */\n      iszero\n      tag_236\n      jumpi\n        /* \"#utility.yul\":10020:10028   */\n      dup2\n        /* \"#utility.yul\":10005:10028   */\n      swap1\n      pop\n        /* \"#utility.yul\":9981:10030   */\n    tag_236:\n        /* \"#utility.yul\":10043:10123   */\n      tag_237\n        /* \"#utility.yul\":10099:10121   */\n      tag_238\n        /* \"#utility.yul\":10117:10120   */\n      dup6\n        /* \"#utility.yul\":10099:10121   */\n      tag_96\n      jump\t// in\n    tag_238:\n        /* \"#utility.yul\":10089:10097   */\n      dup4\n        /* \"#utility.yul\":10085:10122   */\n      add\n        /* \"#utility.yul\":10072:10083   */\n      dup3\n        /* \"#utility.yul\":10043:10123   */\n      tag_105\n      jump\t// in\n    tag_237:\n        /* \"#utility.yul\":9702:10133   */\n      pop\n      pop\n        /* \"#utility.yul\":9687:10133   */\n    tag_233:\n        /* \"#utility.yul\":9597:10140   */\n      pop\n      pop\n      pop\n      jump\t// out\n        /* \"#utility.yul\":10146:10263   */\n    tag_107:\n        /* \"#utility.yul\":10200:10208   */\n      0x00\n        /* \"#utility.yul\":10250:10255   */\n      dup3\n        /* \"#utility.yul\":10244:10248   */\n      dup3\n        /* \"#utility.yul\":10240:10256   */\n      shr\n        /* \"#utility.yul\":10219:10256   */\n      swap1\n      pop\n        /* \"#utility.yul\":10146:10263   */\n      swap3\n      swap2\n      pop\n      pop\n      jump\t// out\n        /* \"#utility.yul\":10269:10438   */\n    tag_108:\n        /* \"#utility.yul\":10313:10319   */\n      0x00\n        /* \"#utility.yul\":10346:10397   */\n      tag_241\n        /* \"#utility.yul\":10394:10395   */\n      0x00\n        /* \"#utility.yul\":10390:10396   */\n      not\n        /* \"#utility.yul\":10382:10387   */\n      dup5\n        /* \"#utility.yul\":10379:10380   */\n      0x08\n        /* \"#utility.yul\":10375:10388   */\n      mul\n        /* \"#utility.yul\":10346:10397   */\n      tag_107\n      jump\t// in\n    tag_241:\n        /* \"#utility.yul\":10342:10398   */\n      not\n        /* \"#utility.yul\":10427:10431   */\n      dup1\n        /* \"#utility.yul\":10421:10425   */\n      dup4\n        /* \"#utility.yul\":10417:10432   */\n      and\n        /* \"#utility.yul\":10407:10432   */\n      swap2\n      pop\n        /* \"#utility.yul\":10320:10438   */\n      pop\n        /* \"#utility.yul\":10269:10438   */\n      swap3\n      swap2\n      pop\n      pop\n      jump\t// out\n        /* \"#utility.yul\":10443:10738   */\n    tag_109:\n        /* \"#utility.yul\":10519:10523   */\n      0x00\n        /* \"#utility.yul\":10665:10694   */\n      tag_243\n        /* \"#utility.yul\":10690:10693   */\n      dup4\n        /* \"#utility.yul\":10684:10688   */\n      dup4\n        /* \"#utility.yul\":10665:10694   */\n      tag_108\n      jump\t// in\n    tag_243:\n        /* \"#utility.yul\":10657:10694   */\n      swap2\n      pop\n        /* \"#utility.yul\":10727:10730   */\n      dup3\n        /* \"#utility.yul\":10724:10725   */\n      0x02\n        /* \"#utility.yul\":10720:10731   */\n      mul\n        /* \"#utility.yul\":10714:10718   */\n      dup3\n        /* \"#utility.yul\":10711:10732   */\n      or\n        /* \"#utility.yul\":10703:10732   */\n      swap1\n      pop\n        /* \"#utility.yul\":10443:10738   */\n      swap3\n      swap2\n      pop\n      pop\n      jump\t// out\n        /* \"#utility.yul\":10743:12138   */\n    tag_27:\n        /* \"#utility.yul\":10860:10897   */\n      tag_245\n        /* \"#utility.yul\":10893:10896   */\n      dup3\n        /* \"#utility.yul\":10860:10897   */\n      tag_90\n      jump\t// in\n    tag_245:\n        /* \"#utility.yul\":10962:10980   */\n      0xffffffffffffffff\n        /* \"#utility.yul\":10954:10960   */\n      dup2\n        /* \"#utility.yul\":10951:10981   */\n      gt\n        /* \"#utility.yul\":10948:11004   */\n      iszero\n      tag_246\n      jumpi\n        /* \"#utility.yul\":10984:11002   */\n      tag_247\n      tag_76\n      jump\t// in\n    tag_247:\n        /* \"#utility.yul\":10948:11004   */\n    tag_246:\n        /* \"#utility.yul\":11028:11066   */\n      tag_248\n        /* \"#utility.yul\":11060:11064   */\n      dup3\n        /* \"#utility.yul\":11054:11065   */\n      sload\n        /* \"#utility.yul\":11028:11066   */\n      tag_57\n      jump\t// in\n    tag_248:\n        /* \"#utility.yul\":11113:11180   */\n      tag_249\n        /* \"#utility.yul\":11173:11179   */\n      dup3\n        /* \"#utility.yul\":11165:11171   */\n      dup3\n        /* \"#utility.yul\":11159:11163   */\n      dup6\n        /* \"#utility.yul\":11113:11180   */\n      tag_106\n      jump\t// in\n    tag_249:\n        /* \"#utility.yul\":11207:11208   */\n      0x00\n        /* \"#utility.yul\":11231:11235   */\n      0x20\n        /* \"#utility.yul\":11218:11235   */\n      swap1\n      pop\n        /* \"#utility.yul\":11263:11265   */\n      0x1f\n        /* \"#utility.yul\":11255:11261   */\n      dup4\n        /* \"#utility.yul\":11252:11266   */\n      gt\n        /* \"#utility.yul\":11280:11281   */\n      0x01\n        /* \"#utility.yul\":11275:11893   */\n      dup2\n      eq\n      tag_251\n      jumpi\n        /* \"#utility.yul\":11937:11938   */\n      0x00\n        /* \"#utility.yul\":11954:11960   */\n      dup5\n        /* \"#utility.yul\":11951:12028   */\n      iszero\n      tag_252\n      jumpi\n        /* \"#utility.yul\":12003:12012   */\n      dup3\n        /* \"#utility.yul\":11998:12001   */\n      dup8\n        /* \"#utility.yul\":11994:12013   */\n      add\n        /* \"#utility.yul\":11988:12014   */\n      mload\n        /* \"#utility.yul\":11979:12014   */\n      swap1\n      pop\n        /* \"#utility.yul\":11951:12028   */\n    tag_252:\n        /* \"#utility.yul\":12054:12121   */\n      tag_253\n        /* \"#utility.yul\":12114:12120   */\n      dup6\n        /* \"#utility.yul\":12107:12112   */\n      dup3\n        /* \"#utility.yul\":12054:12121   */\n      tag_109\n      jump\t// in\n    tag_253:\n        /* \"#utility.yul\":12048:12052   */\n      dup7\n        /* \"#utility.yul\":12041:12122   */\n      sstore\n        /* \"#utility.yul\":11910:12132   */\n      pop\n        /* \"#utility.yul\":11245:12132   */\n      jump(tag_250)\n        /* \"#utility.yul\":11275:11893   */\n    tag_251:\n        /* \"#utility.yul\":11327:11331   */\n      0x1f\n        /* \"#utility.yul\":11323:11332   */\n      not\n        /* \"#utility.yul\":11315:11321   */\n      dup5\n        /* \"#utility.yul\":11311:11333   */\n      and\n        /* \"#utility.yul\":11361:11398   */\n      tag_254\n        /* \"#utility.yul\":11393:11397   */\n      dup7\n        /* \"#utility.yul\":11361:11398   */\n      tag_95\n      jump\t// in\n    tag_254:\n        /* \"#utility.yul\":11420:11421   */\n      0x00\n        /* \"#utility.yul\":11434:11642   */\n    tag_255:\n        /* \"#utility.yul\":11448:11455   */\n      dup3\n        /* \"#utility.yul\":11445:11446   */\n      dup2\n        /* \"#utility.yul\":11442:11456   */\n      lt\n        /* \"#utility.yul\":11434:11642   */\n      iszero\n      tag_257\n      jumpi\n        /* \"#utility.yul\":11527:11536   */\n      dup5\n        /* \"#utility.yul\":11522:11525   */\n      dup10\n        /* \"#utility.yul\":11518:11537   */\n      add\n        /* \"#utility.yul\":11512:11538   */\n      mload\n        /* \"#utility.yul\":11504:11510   */\n      dup3\n        /* \"#utility.yul\":11497:11539   */\n      sstore\n        /* \"#utility.yul\":11578:11579   */\n      0x01\n        /* \"#utility.yul\":11570:11576   */\n      dup3\n        /* \"#utility.yul\":11566:11580   */\n      add\n        /* \"#utility.yul\":11556:11580   */\n      swap2\n      pop\n        /* \"#utility.yul\":11625:11627   */\n      0x20\n        /* \"#utility.yul\":11614:11623   */\n      dup6\n        /* \"#utility.yul\":11610:11628   */\n      add\n        /* \"#utility.yul\":11597:11628   */\n      swap5\n      pop\n        /* \"#utility.yul\":11471:11475   */\n      0x20\n        /* \"#utility.yul\":11468:11469   */\n      dup2\n        /* \"#utility.yul\":11464:11476   */\n      add\n        /* \"#utility.yul\":11459:11476   */\n      swap1\n      pop\n        /* \"#utility.yul\":11434:11642   */\n      jump(tag_255)\n    tag_257:\n        /* \"#utility.yul\":11670:11676   */\n      dup7\n        /* \"#utility.yul\":11661:11668   */\n      dup4\n        /* \"#utility.yul\":11658:11677   */\n      lt\n        /* \"#utility.yul\":11655:11834   */\n      iszero\n      tag_258\n      jumpi\n        /* \"#utility.yul\":11728:11737   */\n      dup5\n        /* \"#utility.yul\":11723:11726   */\n      dup10\n        /* \"#utility.yul\":11719:11738   */\n      add\n        /* \"#utility.yul\":11713:11739   */\n      mload\n        /* \"#utility.yul\":11771:11819   */\n      tag_259\n        /* \"#utility.yul\":11813:11817   */\n      0x1f\n        /* \"#utility.yul\":11805:11811   */\n      dup10\n        /* \"#utility.yul\":11801:11818   */\n      and\n        /* \"#utility.yul\":11790:11799   */\n      dup3\n        /* \"#utility.yul\":11771:11819   */\n      tag_108\n      jump\t// in\n    tag_259:\n        /* \"#utility.yul\":11763:11769   */\n      dup4\n        /* \"#utility.yul\":11756:11820   */\n      sstore\n        /* \"#utility.yul\":11678:11834   */\n      pop\n        /* \"#utility.yul\":11655:11834   */\n    tag_258:\n        /* \"#utility.yul\":11880:11881   */\n      0x01\n        /* \"#utility.yul\":11876:11877   */\n      0x02\n        /* \"#utility.yul\":11868:11874   */\n      dup9\n        /* \"#utility.yul\":11864:11878   */\n      mul\n        /* \"#utility.yul\":11860:11882   */\n      add\n        /* \"#utility.yul\":11854:11858   */\n      dup9\n        /* \"#utility.yul\":11847:11883   */\n      sstore\n        /* \"#utility.yul\":11282:11893   */\n      pop\n      pop\n      pop\n        /* \"#utility.yul\":11245:12132   */\n    tag_250:\n      pop\n        /* \"#utility.yul\":10835:12138   */\n      pop\n      pop\n      pop\n        /* \"#utility.yul\":10743:12138   */\n      pop\n      pop\n      jump\t// out\n        /* \"#utility.yul\":12144:12286   */\n    tag_110:\n        /* \"#utility.yul\":12194:12203   */\n      0x00\n        /* \"#utility.yul\":12227:12280   */\n      tag_261\n        /* \"#utility.yul\":12245:12279   */\n      tag_262\n        /* \"#utility.yul\":12254:12278   */\n      tag_263\n        /* \"#utility.yul\":12272:12277   */\n      dup5\n        /* \"#utility.yul\":12254:12278   */\n      tag_83\n      jump\t// in\n    tag_263:\n        /* \"#utility.yul\":12245:12279   */\n      tag_99\n      jump\t// in\n    tag_262:\n        /* \"#utility.yul\":12227:12280   */\n      tag_83\n      jump\t// in\n    tag_261:\n        /* \"#utility.yul\":12214:12280   */\n      swap1\n      pop\n        /* \"#utility.yul\":12144:12286   */\n      swap2\n      swap1\n      pop\n      jump\t// out\n        /* \"#utility.yul\":12292:12418   */\n    tag_111:\n        /* \"#utility.yul\":12342:12351   */\n      0x00\n        /* \"#utility.yul\":12375:12412   */\n      tag_265\n        /* \"#utility.yul\":12406:12411   */\n      dup3\n        /* \"#utility.yul\":12375:12412   */\n      tag_110\n      jump\t// in\n    tag_265:\n        /* \"#utility.yul\":12362:12412   */\n      swap1\n      pop\n        /* \"#utility.yul\":12292:12418   */\n      swap2\n      swap1\n      pop\n      jump\t// out\n        /* \"#utility.yul\":12424:12558   */\n    tag_112:\n        /* \"#utility.yul\":12482:12491   */\n      0x00\n        /* \"#utility.yul\":12515:12552   */\n      tag_267\n        /* \"#utility.yul\":12546:12551   */\n      dup3\n        /* \"#utility.yul\":12515:12552   */\n      tag_111\n      jump\t// in\n    tag_267:\n        /* \"#utility.yul\":12502:12552   */\n      swap1\n      pop\n        /* \"#utility.yul\":12424:12558   */\n      swap2\n      swap1\n      pop\n      jump\t// out\n        /* \"#utility.yul\":12564:12711   */\n    tag_113:\n        /* \"#utility.yul\":12659:12704   */\n      tag_269\n        /* \"#utility.yul\":12698:12703   */\n      dup2\n        /* \"#utility.yul\":12659:12704   */\n      tag_112\n      jump\t// in\n    tag_269:\n        /* \"#utility.yul\":12654:12657   */\n      dup3\n        /* \"#utility.yul\":12647:12705   */\n      mstore\n        /* \"#utility.yul\":12564:12711   */\n      pop\n      pop\n      jump\t// out\n        /* \"#utility.yul\":12717:13690   */\n    tag_30:\n        /* \"#utility.yul\":12998:13002   */\n      0x00\n        /* \"#utility.yul\":13036:13039   */\n      0xc0\n        /* \"#utility.yul\":13025:13034   */\n      dup3\n        /* \"#utility.yul\":13021:13040   */\n      add\n        /* \"#utility.yul\":13013:13040   */\n      swap1\n      pop\n        /* \"#utility.yul\":13050:13121   */\n      tag_271\n        /* \"#utility.yul\":13118:13119   */\n      0x00\n        /* \"#utility.yul\":13107:13116   */\n      dup4\n        /* \"#utility.yul\":13103:13120   */\n      add\n        /* \"#utility.yul\":13094:13100   */\n      dup10\n        /* \"#utility.yul\":13050:13121   */\n      tag_89\n      jump\t// in\n    tag_271:\n        /* \"#utility.yul\":13131:13203   */\n      tag_272\n        /* \"#utility.yul\":13199:13201   */\n      0x20\n        /* \"#utility.yul\":13188:13197   */\n      dup4\n        /* \"#utility.yul\":13184:13202   */\n      add\n        /* \"#utility.yul\":13175:13181   */\n      dup9\n        /* \"#utility.yul\":13131:13203   */\n      tag_89\n      jump\t// in\n    tag_272:\n        /* \"#utility.yul\":13213:13285   */\n      tag_273\n        /* \"#utility.yul\":13281:13283   */\n      0x40\n        /* \"#utility.yul\":13270:13279   */\n      dup4\n        /* \"#utility.yul\":13266:13284   */\n      add\n        /* \"#utility.yul\":13257:13263   */\n      dup8\n        /* \"#utility.yul\":13213:13285   */\n      tag_89\n      jump\t// in\n    tag_273:\n        /* \"#utility.yul\":13332:13341   */\n      dup2\n        /* \"#utility.yul\":13326:13330   */\n      dup2\n        /* \"#utility.yul\":13322:13342   */\n      sub\n        /* \"#utility.yul\":13317:13319   */\n      0x60\n        /* \"#utility.yul\":13306:13315   */\n      dup4\n        /* \"#utility.yul\":13302:13320   */\n      add\n        /* \"#utility.yul\":13295:13343   */\n      mstore\n        /* \"#utility.yul\":13360:13438   */\n      tag_274\n        /* \"#utility.yul\":13433:13437   */\n      dup2\n        /* \"#utility.yul\":13424:13430   */\n      dup7\n        /* \"#utility.yul\":13360:13438   */\n      tag_93\n      jump\t// in\n    tag_274:\n        /* \"#utility.yul\":13352:13438   */\n      swap1\n      pop\n        /* \"#utility.yul\":13486:13495   */\n      dup2\n        /* \"#utility.yul\":13480:13484   */\n      dup2\n        /* \"#utility.yul\":13476:13496   */\n      sub\n        /* \"#utility.yul\":13470:13473   */\n      0x80\n        /* \"#utility.yul\":13459:13468   */\n      dup4\n        /* \"#utility.yul\":13455:13474   */\n      add\n        /* \"#utility.yul\":13448:13497   */\n      mstore\n        /* \"#utility.yul\":13514:13592   */\n      tag_275\n        /* \"#utility.yul\":13587:13591   */\n      dup2\n        /* \"#utility.yul\":13578:13584   */\n      dup6\n        /* \"#utility.yul\":13514:13592   */\n      tag_93\n      jump\t// in\n    tag_275:\n        /* \"#utility.yul\":13506:13592   */\n      swap1\n      pop\n        /* \"#utility.yul\":13602:13683   */\n      tag_276\n        /* \"#utility.yul\":13678:13681   */\n      0xa0\n        /* \"#utility.yul\":13667:13676   */\n      dup4\n        /* \"#utility.yul\":13663:13682   */\n      add\n        /* \"#utility.yul\":13654:13660   */\n      dup5\n        /* \"#utility.yul\":13602:13683   */\n      tag_113\n      jump\t// in\n    tag_276:\n        /* \"#utility.yul\":12717:13690   */\n      swap8\n      swap7\n      pop\n      pop\n      pop\n      pop\n      pop\n      pop\n      pop\n      jump\t// out\n        /* \"#utility.yul\":13696:13876   */\n    tag_34:\n        /* \"#utility.yul\":13744:13821   */\n      0x4e487b7100000000000000000000000000000000000000000000000000000000\n        /* \"#utility.yul\":13741:13742   */\n      0x00\n        /* \"#utility.yul\":13734:13822   */\n      mstore\n        /* \"#utility.yul\":13841:13845   */\n      0x32\n        /* \"#utility.yul\":13838:13839   */\n      0x04\n        /* \"#utility.yul\":13831:13846   */\n      mstore\n        /* \"#utility.yul\":13865:13869   */\n      0x24\n        /* \"#utility.yul\":13862:13863   */\n      0x00\n        /* \"#utility.yul\":13855:13870   */\n      revert\n        /* \"#utility.yul\":13882:13978   */\n    tag_114:\n        /* \"#utility.yul\":13919:13926   */\n      0x00\n        /* \"#utility.yul\":13948:13972   */\n      tag_279\n        /* \"#utility.yul\":13966:13971   */\n      dup3\n        /* \"#utility.yul\":13948:13972   */\n      tag_83\n      jump\t// in\n    tag_279:\n        /* \"#utility.yul\":13937:13972   */\n      swap1\n      pop\n        /* \"#utility.yul\":13882:13978   */\n      swap2\n      swap1\n      pop\n      jump\t// out\n        /* \"#utility.yul\":13984:14102   */\n    tag_115:\n        /* \"#utility.yul\":14071:14095   */\n      tag_281\n        /* \"#utility.yul\":14089:14094   */\n      dup2\n        /* \"#utility.yul\":14071:14095   */\n      tag_114\n      jump\t// in\n    tag_281:\n        /* \"#utility.yul\":14066:14069   */\n      dup3\n        /* \"#utility.yul\":14059:14096   */\n      mstore\n        /* \"#utility.yul\":13984:14102   */\n      pop\n      pop\n      jump\t// out\n        /* \"#utility.yul\":14108:14440   */\n    tag_40:\n        /* \"#utility.yul\":14229:14233   */\n      0x00\n        /* \"#utility.yul\":14267:14269   */\n      0x40\n        /* \"#utility.yul\":14256:14265   */\n      dup3\n        /* \"#utility.yul\":14252:14270   */\n      add\n        /* \"#utility.yul\":14244:14270   */\n      swap1\n      pop\n        /* \"#utility.yul\":14280:14351   */\n      tag_283\n        /* \"#utility.yul\":14348:14349   */\n      0x00\n        /* \"#utility.yul\":14337:14346   */\n      dup4\n        /* \"#utility.yul\":14333:14350   */\n      add\n        /* \"#utility.yul\":14324:14330   */\n      dup6\n        /* \"#utility.yul\":14280:14351   */\n      tag_115\n      jump\t// in\n    tag_283:\n        /* \"#utility.yul\":14361:14433   */\n      tag_284\n        /* \"#utility.yul\":14429:14431   */\n      0x20\n        /* \"#utility.yul\":14418:14427   */\n      dup4\n        /* \"#utility.yul\":14414:14432   */\n      add\n        /* \"#utility.yul\":14405:14411   */\n      dup5\n        /* \"#utility.yul\":14361:14433   */\n      tag_89\n      jump\t// in\n    tag_284:\n        /* \"#utility.yul\":14108:14440   */\n      swap4\n      swap3\n      pop\n      pop\n      pop\n      jump\t// out\n        /* \"#utility.yul\":14446:14593   */\n    tag_116:\n        /* \"#utility.yul\":14547:14558   */\n      0x00\n        /* \"#utility.yul\":14584:14587   */\n      dup2\n        /* \"#utility.yul\":14569:14587   */\n      swap1\n      pop\n        /* \"#utility.yul\":14446:14593   */\n      swap3\n      swap2\n      pop\n      pop\n      jump\t// out\n        /* \"#utility.yul\":14599:14713   */\n    tag_117:\n      pop\n      jump\t// out\n        /* \"#utility.yul\":14719:15117   */\n    tag_118:\n        /* \"#utility.yul\":14878:14881   */\n      0x00\n        /* \"#utility.yul\":14899:14982   */\n      tag_288\n        /* \"#utility.yul\":14980:14981   */\n      0x00\n        /* \"#utility.yul\":14975:14978   */\n      dup4\n        /* \"#utility.yul\":14899:14982   */\n      tag_116\n      jump\t// in\n    tag_288:\n        /* \"#utility.yul\":14892:14982   */\n      swap2\n      pop\n        /* \"#utility.yul\":14991:15084   */\n      tag_289\n        /* \"#utility.yul\":15080:15083   */\n      dup3\n        /* \"#utility.yul\":14991:15084   */\n      tag_117\n      jump\t// in\n    tag_289:\n        /* \"#utility.yul\":15109:15110   */\n      0x00\n        /* \"#utility.yul\":15104:15107   */\n      dup3\n        /* \"#utility.yul\":15100:15111   */\n      add\n        /* \"#utility.yul\":15093:15111   */\n      swap1\n      pop\n        /* \"#utility.yul\":14719:15117   */\n      swap2\n      swap1\n      pop\n      jump\t// out\n        /* \"#utility.yul\":15123:15502   */\n    tag_48:\n        /* \"#utility.yul\":15307:15310   */\n      0x00\n        /* \"#utility.yul\":15329:15476   */\n      tag_291\n        /* \"#utility.yul\":15472:15475   */\n      dup3\n        /* \"#utility.yul\":15329:15476   */\n      tag_118\n      jump\t// in\n    tag_291:\n        /* \"#utility.yul\":15322:15476   */\n      swap2\n      pop\n        /* \"#utility.yul\":15493:15496   */\n      dup2\n        /* \"#utility.yul\":15486:15496   */\n      swap1\n      pop\n        /* \"#utility.yul\":15123:15502   */\n      swap2\n      swap1\n      pop\n      jump\t// out\n\n    auxdata: 0xa26469706673582212207242b6f4e1cab68d0f8394e6f6a5c8bdbe4b88b370f40d7fd9c66fbc35326e6664736f6c63430008120033\n}\n",
				"bytecode": {
					"linkReferences": {},
					"object": "608060405234801561001057600080fd5b50610edb806100206000396000f3fe6080604052600436106100345760003560e01c80635c40465e146100395780638642269e14610062578063b9db15b414610092575b600080fd5b34801561004557600080fd5b50610060600480360381019061005b919061084d565b6100d2565b005b61007c60048036038101906100779190610900565b610266565b6040516100899190610948565b60405180910390f35b34801561009e57600080fd5b506100b960048036038101906100b49190610900565b61040f565b6040516100c994939291906109f1565b60405180910390f35b6100da610613565b858160000181815250508481602001819052508381604001818152505067016345785d8a0000816060018181525050828160800181905250818160a0019073ffffffffffffffffffffffffffffffffffffffff16908173ffffffffffffffffffffffffffffffffffffffff16815250506000808781526020019081526020016000208190806001815401808255809150506001900390600052602060002090600602016000909190919091506000820151816000015560208201518160010190816101a59190610c50565b50604082015181600201556060820151816003015560808201518160040190816101cf9190610c50565b5060a08201518160050160006101000a81548173ffffffffffffffffffffffffffffffffffffffff021916908373ffffffffffffffffffffffffffffffffffffffff16021790555050507f1b9f0b183eb697d11c245eb8b7f8ae297d0f82477ce0321b6bda5332909eb24e8685836060015188878760405161025696959493929190610d77565b60405180910390a1505050505050565b600080600083815260200190815260200160002060008154811061028d5761028c610de6565b5b9060005260206000209060060201600001547fa530f889d7f1bd9a73028e48944ca013ab2c6624a31e3fa26f923f4bb719abd5336000808681526020019081526020016000206000815481106102e6576102e5610de6565b5b906000526020600020906006020160030154604051610306929190610e36565b60405180910390a2600080600084815260200190815260200160002060008154811061033557610334610de6565b5b906000526020600020906006020160050160009054906101000a900473ffffffffffffffffffffffffffffffffffffffff1673ffffffffffffffffffffffffffffffffffffffff166000808581526020019081526020016000206000815481106103a2576103a1610de6565b5b9060005260206000209060060201600301546040516103c090610e90565b60006040518083038185875af1925050503d80600081146103fd576040519150601f19603f3d011682016040523d82523d6000602084013e610402565b606091505b5050905080915050919050565b600080606080600080600087815260200190815260200160002060008154811061043c5761043b610de6565b5b90600052602060002090600602016040518060c00160405290816000820154815260200160018201805461046f90610a73565b80601f016020809104026020016040519081016040528092919081815260200182805461049b90610a73565b80156104e85780601f106104bd576101008083540402835291602001916104e8565b820191906000526020600020905b8154815290600101906020018083116104cb57829003601f168201915b50505050508152602001600282015481526020016003820154815260200160048201805461051590610a73565b80601f016020809104026020016040519081016040528092919081815260200182805461054190610a73565b801561058e5780601f106105635761010080835404028352916020019161058e565b820191906000526020600020905b81548152906001019060200180831161057157829003601f168201915b505050505081526020016005820160009054906101000a900473ffffffffffffffffffffffffffffffffffffffff1673ffffffffffffffffffffffffffffffffffffffff1673ffffffffffffffffffffffffffffffffffffffff1681525050905080600001518160600151826080015183602001519450945094509450509193509193565b6040518060c001604052806000815260200160608152602001600081526020016000815260200160608152602001600073ffffffffffffffffffffffffffffffffffffffff1681525090565b6000604051905090565b600080fd5b600080fd5b6000819050919050565b61068681610673565b811461069157600080fd5b50565b6000813590506106a38161067d565b92915050565b600080fd5b600080fd5b6000601f19601f8301169050919050565b7f4e487b7100000000000000000000000000000000000000000000000000000000600052604160045260246000fd5b6106fc826106b3565b810181811067ffffffffffffffff8211171561071b5761071a6106c4565b5b80604052505050565b600061072e61065f565b905061073a82826106f3565b919050565b600067ffffffffffffffff82111561075a576107596106c4565b5b610763826106b3565b9050602081019050919050565b82818337600083830152505050565b600061079261078d8461073f565b610724565b9050828152602081018484840111156107ae576107ad6106ae565b5b6107b9848285610770565b509392505050565b600082601f8301126107d6576107d56106a9565b5b81356107e684826020860161077f565b91505092915050565b600073ffffffffffffffffffffffffffffffffffffffff82169050919050565b600061081a826107ef565b9050919050565b61082a8161080f565b811461083557600080fd5b50565b60008135905061084781610821565b92915050565b600080600080600060a0868803121561086957610868610669565b5b600061087788828901610694565b955050602086013567ffffffffffffffff8111156108985761089761066e565b5b6108a4888289016107c1565b94505060406108b588828901610694565b935050606086013567ffffffffffffffff8111156108d6576108d561066e565b5b6108e2888289016107c1565b92505060806108f388828901610838565b9150509295509295909350565b60006020828403121561091657610915610669565b5b600061092484828501610694565b91505092915050565b60008115159050919050565b6109428161092d565b82525050565b600060208201905061095d6000830184610939565b92915050565b61096c81610673565b82525050565b600081519050919050565b600082825260208201905092915050565b60005b838110156109ac578082015181840152602081019050610991565b60008484015250505050565b60006109c382610972565b6109cd818561097d565b93506109dd81856020860161098e565b6109e6816106b3565b840191505092915050565b6000608082019050610a066000830187610963565b610a136020830186610963565b8181036040830152610a2581856109b8565b90508181036060830152610a3981846109b8565b905095945050505050565b7f4e487b7100000000000000000000000000000000000000000000000000000000600052602260045260246000fd5b60006002820490506001821680610a8b57607f821691505b602082108103610a9e57610a9d610a44565b5b50919050565b60008190508160005260206000209050919050565b60006020601f8301049050919050565b600082821b905092915050565b600060088302610b067fffffffffffffffffffffffffffffffffffffffffffffffffffffffffffffffff82610ac9565b610b108683610ac9565b95508019841693508086168417925050509392505050565b6000819050919050565b6000610b4d610b48610b4384610673565b610b28565b610673565b9050919050565b6000819050919050565b610b6783610b32565b610b7b610b7382610b54565b848454610ad6565b825550505050565b600090565b610b90610b83565b610b9b818484610b5e565b505050565b5b81811015610bbf57610bb4600082610b88565b600181019050610ba1565b5050565b601f821115610c0457610bd581610aa4565b610bde84610ab9565b81016020851015610bed578190505b610c01610bf985610ab9565b830182610ba0565b50505b505050565b600082821c905092915050565b6000610c2760001984600802610c09565b1980831691505092915050565b6000610c408383610c16565b9150826002028217905092915050565b610c5982610972565b67ffffffffffffffff811115610c7257610c716106c4565b5b610c7c8254610a73565b610c87828285610bc3565b600060209050601f831160018114610cba5760008415610ca8578287015190505b610cb28582610c34565b865550610d1a565b601f198416610cc886610aa4565b60005b82811015610cf057848901518255600182019150602085019450602081019050610ccb565b86831015610d0d5784890151610d09601f891682610c16565b8355505b6001600288020188555050505b505050505050565b6000610d3d610d38610d33846107ef565b610b28565b6107ef565b9050919050565b6000610d4f82610d22565b9050919050565b6000610d6182610d44565b9050919050565b610d7181610d56565b82525050565b600060c082019050610d8c6000830189610963565b610d996020830188610963565b610da66040830187610963565b8181036060830152610db881866109b8565b90508181036080830152610dcc81856109b8565b9050610ddb60a0830184610d68565b979650505050505050565b7f4e487b7100000000000000000000000000000000000000000000000000000000600052603260045260246000fd5b6000610e20826107ef565b9050919050565b610e3081610e15565b82525050565b6000604082019050610e4b6000830185610e27565b610e586020830184610963565b9392505050565b600081905092915050565b50565b6000610e7a600083610e5f565b9150610e8582610e6a565b600082019050919050565b6000610e9b82610e6d565b915081905091905056fea26469706673582212207242b6f4e1cab68d0f8394e6f6a5c8bdbe4b88b370f40d7fd9c66fbc35326e6664736f6c63430008120033",
					"opcodes": "PUSH1 0x80 PUSH1 0x40 MSTORE CALLVALUE DUP1 ISZERO PUSH2 0x10 JUMPI PUSH1 0x0 DUP1 REVERT JUMPDEST POP PUSH2 0xEDB DUP1 PUSH2 0x20 PUSH1 0x0 CODECOPY PUSH1 0x0 RETURN INVALID PUSH1 0x80 PUSH1 0x40 MSTORE PUSH1 0x4 CALLDATASIZE LT PUSH2 0x34 JUMPI PUSH1 0x0 CALLDATALOAD PUSH1 0xE0 SHR DUP1 PUSH4 0x5C40465E EQ PUSH2 0x39 JUMPI DUP1 PUSH4 0x8642269E EQ PUSH2 0x62 JUMPI DUP1 PUSH4 0xB9DB15B4 EQ PUSH2 0x92 JUMPI JUMPDEST PUSH1 0x0 DUP1 REVERT JUMPDEST CALLVALUE DUP1 ISZERO PUSH2 0x45 JUMPI PUSH1 0x0 DUP1 REVERT JUMPDEST POP PUSH2 0x60 PUSH1 0x4 DUP1 CALLDATASIZE SUB DUP2 ADD SWAP1 PUSH2 0x5B SWAP2 SWAP1 PUSH2 0x84D JUMP JUMPDEST PUSH2 0xD2 JUMP JUMPDEST STOP JUMPDEST PUSH2 0x7C PUSH1 0x4 DUP1 CALLDATASIZE SUB DUP2 ADD SWAP1 PUSH2 0x77 SWAP2 SWAP1 PUSH2 0x900 JUMP JUMPDEST PUSH2 0x266 JUMP JUMPDEST PUSH1 0x40 MLOAD PUSH2 0x89 SWAP2 SWAP1 PUSH2 0x948 JUMP JUMPDEST PUSH1 0x40 MLOAD DUP1 SWAP2 SUB SWAP1 RETURN JUMPDEST CALLVALUE DUP1 ISZERO PUSH2 0x9E JUMPI PUSH1 0x0 DUP1 REVERT JUMPDEST POP PUSH2 0xB9 PUSH1 0x4 DUP1 CALLDATASIZE SUB DUP2 ADD SWAP1 PUSH2 0xB4 SWAP2 SWAP1 PUSH2 0x900 JUMP JUMPDEST PUSH2 0x40F JUMP JUMPDEST PUSH1 0x40 MLOAD PUSH2 0xC9 SWAP5 SWAP4 SWAP3 SWAP2 SWAP1 PUSH2 0x9F1 JUMP JUMPDEST PUSH1 0x40 MLOAD DUP1 SWAP2 SUB SWAP1 RETURN JUMPDEST PUSH2 0xDA PUSH2 0x613 JUMP JUMPDEST DUP6 DUP2 PUSH1 0x0 ADD DUP2 DUP2 MSTORE POP POP DUP5 DUP2 PUSH1 0x20 ADD DUP2 SWAP1 MSTORE POP DUP4 DUP2 PUSH1 0x40 ADD DUP2 DUP2 MSTORE POP POP PUSH8 0x16345785D8A0000 DUP2 PUSH1 0x60 ADD DUP2 DUP2 MSTORE POP POP DUP3 DUP2 PUSH1 0x80 ADD DUP2 SWAP1 MSTORE POP DUP2 DUP2 PUSH1 0xA0 ADD SWAP1 PUSH20 0xFFFFFFFFFFFFFFFFFFFFFFFFFFFFFFFFFFFFFFFF AND SWAP1 DUP2 PUSH20 0xFFFFFFFFFFFFFFFFFFFFFFFFFFFFFFFFFFFFFFFF AND DUP2 MSTORE POP POP PUSH1 0x0 DUP1 DUP8 DUP2 MSTORE PUSH1 0x20 ADD SWAP1 DUP2 MSTORE PUSH1 0x20 ADD PUSH1 0x0 KECCAK256 DUP2 SWAP1 DUP1 PUSH1 0x1 DUP2 SLOAD ADD DUP1 DUP3 SSTORE DUP1 SWAP2 POP POP PUSH1 0x1 SWAP1 SUB SWAP1 PUSH1 0x0 MSTORE PUSH1 0x20 PUSH1 0x0 KECCAK256 SWAP1 PUSH1 0x6 MUL ADD PUSH1 0x0 SWAP1 SWAP2 SWAP1 SWAP2 SWAP1 SWAP2 POP PUSH1 0x0 DUP3 ADD MLOAD DUP2 PUSH1 0x0 ADD SSTORE PUSH1 0x20 DUP3 ADD MLOAD DUP2 PUSH1 0x1 ADD SWAP1 DUP2 PUSH2 0x1A5 SWAP2 SWAP1 PUSH2 0xC50 JUMP JUMPDEST POP PUSH1 0x40 DUP3 ADD MLOAD DUP2 PUSH1 0x2 ADD SSTORE PUSH1 0x60 DUP3 ADD MLOAD DUP2 PUSH1 0x3 ADD SSTORE PUSH1 0x80 DUP3 ADD MLOAD DUP2 PUSH1 0x4 ADD SWAP1 DUP2 PUSH2 0x1CF SWAP2 SWAP1 PUSH2 0xC50 JUMP JUMPDEST POP PUSH1 0xA0 DUP3 ADD MLOAD DUP2 PUSH1 0x5 ADD PUSH1 0x0 PUSH2 0x100 EXP DUP2 SLOAD DUP2 PUSH20 0xFFFFFFFFFFFFFFFFFFFFFFFFFFFFFFFFFFFFFFFF MUL NOT AND SWAP1 DUP4 PUSH20 0xFFFFFFFFFFFFFFFFFFFFFFFFFFFFFFFFFFFFFFFF AND MUL OR SWAP1 SSTORE POP POP POP PUSH32 0x1B9F0B183EB697D11C245EB8B7F8AE297D0F82477CE0321B6BDA5332909EB24E DUP7 DUP6 DUP4 PUSH1 0x60 ADD MLOAD DUP9 DUP8 DUP8 PUSH1 0x40 MLOAD PUSH2 0x256 SWAP7 SWAP6 SWAP5 SWAP4 SWAP3 SWAP2 SWAP1 PUSH2 0xD77 JUMP JUMPDEST PUSH1 0x40 MLOAD DUP1 SWAP2 SUB SWAP1 LOG1 POP POP POP POP POP POP JUMP JUMPDEST PUSH1 0x0 DUP1 PUSH1 0x0 DUP4 DUP2 MSTORE PUSH1 0x20 ADD SWAP1 DUP2 MSTORE PUSH1 0x20 ADD PUSH1 0x0 KECCAK256 PUSH1 0x0 DUP2 SLOAD DUP2 LT PUSH2 0x28D JUMPI PUSH2 0x28C PUSH2 0xDE6 JUMP JUMPDEST JUMPDEST SWAP1 PUSH1 0x0 MSTORE PUSH1 0x20 PUSH1 0x0 KECCAK256 SWAP1 PUSH1 0x6 MUL ADD PUSH1 0x0 ADD SLOAD PUSH32 0xA530F889D7F1BD9A73028E48944CA013AB2C6624A31E3FA26F923F4BB719ABD5 CALLER PUSH1 0x0 DUP1 DUP7 DUP2 MSTORE PUSH1 0x20 ADD SWAP1 DUP2 MSTORE PUSH1 0x20 ADD PUSH1 0x0 KECCAK256 PUSH1 0x0 DUP2 SLOAD DUP2 LT PUSH2 0x2E6 JUMPI PUSH2 0x2E5 PUSH2 0xDE6 JUMP JUMPDEST JUMPDEST SWAP1 PUSH1 0x0 MSTORE PUSH1 0x20 PUSH1 0x0 KECCAK256 SWAP1 PUSH1 0x6 MUL ADD PUSH1 0x3 ADD SLOAD PUSH1 0x40 MLOAD PUSH2 0x306 SWAP3 SWAP2 SWAP1 PUSH2 0xE36 JUMP JUMPDEST PUSH1 0x40 MLOAD DUP1 SWAP2 SUB SWAP1 LOG2 PUSH1 0x0 DUP1 PUSH1 0x0 DUP5 DUP2 MSTORE PUSH1 0x20 ADD SWAP1 DUP2 MSTORE PUSH1 0x20 ADD PUSH1 0x0 KECCAK256 PUSH1 0x0 DUP2 SLOAD DUP2 LT PUSH2 0x335 JUMPI PUSH2 0x334 PUSH2 0xDE6 JUMP JUMPDEST JUMPDEST SWAP1 PUSH1 0x0 MSTORE PUSH1 0x20 PUSH1 0x0 KECCAK256 SWAP1 PUSH1 0x6 MUL ADD PUSH1 0x5 ADD PUSH1 0x0 SWAP1 SLOAD SWAP1 PUSH2 0x100 EXP SWAP1 DIV PUSH20 0xFFFFFFFFFFFFFFFFFFFFFFFFFFFFFFFFFFFFFFFF AND PUSH20 0xFFFFFFFFFFFFFFFFFFFFFFFFFFFFFFFFFFFFFFFF AND PUSH1 0x0 DUP1 DUP6 DUP2 MSTORE PUSH1 0x20 ADD SWAP1 DUP2 MSTORE PUSH1 0x20 ADD PUSH1 0x0 KECCAK256 PUSH1 0x0 DUP2 SLOAD DUP2 LT PUSH2 0x3A2 JUMPI PUSH2 0x3A1 PUSH2 0xDE6 JUMP JUMPDEST JUMPDEST SWAP1 PUSH1 0x0 MSTORE PUSH1 0x20 PUSH1 0x0 KECCAK256 SWAP1 PUSH1 0x6 MUL ADD PUSH1 0x3 ADD SLOAD PUSH1 0x40 MLOAD PUSH2 0x3C0 SWAP1 PUSH2 0xE90 JUMP JUMPDEST PUSH1 0x0 PUSH1 0x40 MLOAD DUP1 DUP4 SUB DUP2 DUP6 DUP8 GAS CALL SWAP3 POP POP POP RETURNDATASIZE DUP1 PUSH1 0x0 DUP2 EQ PUSH2 0x3FD JUMPI PUSH1 0x40 MLOAD SWAP2 POP PUSH1 0x1F NOT PUSH1 0x3F RETURNDATASIZE ADD AND DUP3 ADD PUSH1 0x40 MSTORE RETURNDATASIZE DUP3 MSTORE RETURNDATASIZE PUSH1 0x0 PUSH1 0x20 DUP5 ADD RETURNDATACOPY PUSH2 0x402 JUMP JUMPDEST PUSH1 0x60 SWAP2 POP JUMPDEST POP POP SWAP1 POP DUP1 SWAP2 POP POP SWAP2 SWAP1 POP JUMP JUMPDEST PUSH1 0x0 DUP1 PUSH1 0x60 DUP1 PUSH1 0x0 DUP1 PUSH1 0x0 DUP8 DUP2 MSTORE PUSH1 0x20 ADD SWAP1 DUP2 MSTORE PUSH1 0x20 ADD PUSH1 0x0 KECCAK256 PUSH1 0x0 DUP2 SLOAD DUP2 LT PUSH2 0x43C JUMPI PUSH2 0x43B PUSH2 0xDE6 JUMP JUMPDEST JUMPDEST SWAP1 PUSH1 0x0 MSTORE PUSH1 0x20 PUSH1 0x0 KECCAK256 SWAP1 PUSH1 0x6 MUL ADD PUSH1 0x40 MLOAD DUP1 PUSH1 0xC0 ADD PUSH1 0x40 MSTORE SWAP1 DUP2 PUSH1 0x0 DUP3 ADD SLOAD DUP2 MSTORE PUSH1 0x20 ADD PUSH1 0x1 DUP3 ADD DUP1 SLOAD PUSH2 0x46F SWAP1 PUSH2 0xA73 JUMP JUMPDEST DUP1 PUSH1 0x1F ADD PUSH1 0x20 DUP1 SWAP2 DIV MUL PUSH1 0x20 ADD PUSH1 0x40 MLOAD SWAP1 DUP2 ADD PUSH1 0x40 MSTORE DUP1 SWAP3 SWAP2 SWAP1 DUP2 DUP2 MSTORE PUSH1 0x20 ADD DUP3 DUP1 SLOAD PUSH2 0x49B SWAP1 PUSH2 0xA73 JUMP JUMPDEST DUP1 ISZERO PUSH2 0x4E8 JUMPI DUP1 PUSH1 0x1F LT PUSH2 0x4BD JUMPI PUSH2 0x100 DUP1 DUP4 SLOAD DIV MUL DUP4 MSTORE SWAP2 PUSH1 0x20 ADD SWAP2 PUSH2 0x4E8 JUMP JUMPDEST DUP3 ADD SWAP2 SWAP1 PUSH1 0x0 MSTORE PUSH1 0x20 PUSH1 0x0 KECCAK256 SWAP1 JUMPDEST DUP2 SLOAD DUP2 MSTORE SWAP1 PUSH1 0x1 ADD SWAP1 PUSH1 0x20 ADD DUP1 DUP4 GT PUSH2 0x4CB JUMPI DUP3 SWAP1 SUB PUSH1 0x1F AND DUP3 ADD SWAP2 JUMPDEST POP POP POP POP POP DUP2 MSTORE PUSH1 0x20 ADD PUSH1 0x2 DUP3 ADD SLOAD DUP2 MSTORE PUSH1 0x20 ADD PUSH1 0x3 DUP3 ADD SLOAD DUP2 MSTORE PUSH1 0x20 ADD PUSH1 0x4 DUP3 ADD DUP1 SLOAD PUSH2 0x515 SWAP1 PUSH2 0xA73 JUMP JUMPDEST DUP1 PUSH1 0x1F ADD PUSH1 0x20 DUP1 SWAP2 DIV MUL PUSH1 0x20 ADD PUSH1 0x40 MLOAD SWAP1 DUP2 ADD PUSH1 0x40 MSTORE DUP1 SWAP3 SWAP2 SWAP1 DUP2 DUP2 MSTORE PUSH1 0x20 ADD DUP3 DUP1 SLOAD PUSH2 0x541 SWAP1 PUSH2 0xA73 JUMP JUMPDEST DUP1 ISZERO PUSH2 0x58E JUMPI DUP1 PUSH1 0x1F LT PUSH2 0x563 JUMPI PUSH2 0x100 DUP1 DUP4 SLOAD DIV MUL DUP4 MSTORE SWAP2 PUSH1 0x20 ADD SWAP2 PUSH2 0x58E JUMP JUMPDEST DUP3 ADD SWAP2 SWAP1 PUSH1 0x0 MSTORE PUSH1 0x20 PUSH1 0x0 KECCAK256 SWAP1 JUMPDEST DUP2 SLOAD DUP2 MSTORE SWAP1 PUSH1 0x1 ADD SWAP1 PUSH1 0x20 ADD DUP1 DUP4 GT PUSH2 0x571 JUMPI DUP3 SWAP1 SUB PUSH1 0x1F AND DUP3 ADD SWAP2 JUMPDEST POP POP POP POP POP DUP2 MSTORE PUSH1 0x20 ADD PUSH1 0x5 DUP3 ADD PUSH1 0x0 SWAP1 SLOAD SWAP1 PUSH2 0x100 EXP SWAP1 DIV PUSH20 0xFFFFFFFFFFFFFFFFFFFFFFFFFFFFFFFFFFFFFFFF AND PUSH20 0xFFFFFFFFFFFFFFFFFFFFFFFFFFFFFFFFFFFFFFFF AND PUSH20 0xFFFFFFFFFFFFFFFFFFFFFFFFFFFFFFFFFFFFFFFF AND DUP2 MSTORE POP POP SWAP1 POP DUP1 PUSH1 0x0 ADD MLOAD DUP2 PUSH1 0x60 ADD MLOAD DUP3 PUSH1 0x80 ADD MLOAD DUP4 PUSH1 0x20 ADD MLOAD SWAP5 POP SWAP5 POP SWAP5 POP SWAP5 POP POP SWAP2 SWAP4 POP SWAP2 SWAP4 JUMP JUMPDEST PUSH1 0x40 MLOAD DUP1 PUSH1 0xC0 ADD PUSH1 0x40 MSTORE DUP1 PUSH1 0x0 DUP2 MSTORE PUSH1 0x20 ADD PUSH1 0x60 DUP2 MSTORE PUSH1 0x20 ADD PUSH1 0x0 DUP2 MSTORE PUSH1 0x20 ADD PUSH1 0x0 DUP2 MSTORE PUSH1 0x20 ADD PUSH1 0x60 DUP2 MSTORE PUSH1 0x20 ADD PUSH1 0x0 PUSH20 0xFFFFFFFFFFFFFFFFFFFFFFFFFFFFFFFFFFFFFFFF AND DUP2 MSTORE POP SWAP1 JUMP JUMPDEST PUSH1 0x0 PUSH1 0x40 MLOAD SWAP1 POP SWAP1 JUMP JUMPDEST PUSH1 0x0 DUP1 REVERT JUMPDEST PUSH1 0x0 DUP1 REVERT JUMPDEST PUSH1 0x0 DUP2 SWAP1 POP SWAP2 SWAP1 POP JUMP JUMPDEST PUSH2 0x686 DUP2 PUSH2 0x673 JUMP JUMPDEST DUP2 EQ PUSH2 0x691 JUMPI PUSH1 0x0 DUP1 REVERT JUMPDEST POP JUMP JUMPDEST PUSH1 0x0 DUP2 CALLDATALOAD SWAP1 POP PUSH2 0x6A3 DUP2 PUSH2 0x67D JUMP JUMPDEST SWAP3 SWAP2 POP POP JUMP JUMPDEST PUSH1 0x0 DUP1 REVERT JUMPDEST PUSH1 0x0 DUP1 REVERT JUMPDEST PUSH1 0x0 PUSH1 0x1F NOT PUSH1 0x1F DUP4 ADD AND SWAP1 POP SWAP2 SWAP1 POP JUMP JUMPDEST PUSH32 0x4E487B7100000000000000000000000000000000000000000000000000000000 PUSH1 0x0 MSTORE PUSH1 0x41 PUSH1 0x4 MSTORE PUSH1 0x24 PUSH1 0x0 REVERT JUMPDEST PUSH2 0x6FC DUP3 PUSH2 0x6B3 JUMP JUMPDEST DUP2 ADD DUP2 DUP2 LT PUSH8 0xFFFFFFFFFFFFFFFF DUP3 GT OR ISZERO PUSH2 0x71B JUMPI PUSH2 0x71A PUSH2 0x6C4 JUMP JUMPDEST JUMPDEST DUP1 PUSH1 0x40 MSTORE POP POP POP JUMP JUMPDEST PUSH1 0x0 PUSH2 0x72E PUSH2 0x65F JUMP JUMPDEST SWAP1 POP PUSH2 0x73A DUP3 DUP3 PUSH2 0x6F3 JUMP JUMPDEST SWAP2 SWAP1 POP JUMP JUMPDEST PUSH1 0x0 PUSH8 0xFFFFFFFFFFFFFFFF DUP3 GT ISZERO PUSH2 0x75A JUMPI PUSH2 0x759 PUSH2 0x6C4 JUMP JUMPDEST JUMPDEST PUSH2 0x763 DUP3 PUSH2 0x6B3 JUMP JUMPDEST SWAP1 POP PUSH1 0x20 DUP2 ADD SWAP1 POP SWAP2 SWAP1 POP JUMP JUMPDEST DUP3 DUP2 DUP4 CALLDATACOPY PUSH1 0x0 DUP4 DUP4 ADD MSTORE POP POP POP JUMP JUMPDEST PUSH1 0x0 PUSH2 0x792 PUSH2 0x78D DUP5 PUSH2 0x73F JUMP JUMPDEST PUSH2 0x724 JUMP JUMPDEST SWAP1 POP DUP3 DUP2 MSTORE PUSH1 0x20 DUP2 ADD DUP5 DUP5 DUP5 ADD GT ISZERO PUSH2 0x7AE JUMPI PUSH2 0x7AD PUSH2 0x6AE JUMP JUMPDEST JUMPDEST PUSH2 0x7B9 DUP5 DUP3 DUP6 PUSH2 0x770 JUMP JUMPDEST POP SWAP4 SWAP3 POP POP POP JUMP JUMPDEST PUSH1 0x0 DUP3 PUSH1 0x1F DUP4 ADD SLT PUSH2 0x7D6 JUMPI PUSH2 0x7D5 PUSH2 0x6A9 JUMP JUMPDEST JUMPDEST DUP2 CALLDATALOAD PUSH2 0x7E6 DUP5 DUP3 PUSH1 0x20 DUP7 ADD PUSH2 0x77F JUMP JUMPDEST SWAP2 POP POP SWAP3 SWAP2 POP POP JUMP JUMPDEST PUSH1 0x0 PUSH20 0xFFFFFFFFFFFFFFFFFFFFFFFFFFFFFFFFFFFFFFFF DUP3 AND SWAP1 POP SWAP2 SWAP1 POP JUMP JUMPDEST PUSH1 0x0 PUSH2 0x81A DUP3 PUSH2 0x7EF JUMP JUMPDEST SWAP1 POP SWAP2 SWAP1 POP JUMP JUMPDEST PUSH2 0x82A DUP2 PUSH2 0x80F JUMP JUMPDEST DUP2 EQ PUSH2 0x835 JUMPI PUSH1 0x0 DUP1 REVERT JUMPDEST POP JUMP JUMPDEST PUSH1 0x0 DUP2 CALLDATALOAD SWAP1 POP PUSH2 0x847 DUP2 PUSH2 0x821 JUMP JUMPDEST SWAP3 SWAP2 POP POP JUMP JUMPDEST PUSH1 0x0 DUP1 PUSH1 0x0 DUP1 PUSH1 0x0 PUSH1 0xA0 DUP7 DUP9 SUB SLT ISZERO PUSH2 0x869 JUMPI PUSH2 0x868 PUSH2 0x669 JUMP JUMPDEST JUMPDEST PUSH1 0x0 PUSH2 0x877 DUP9 DUP3 DUP10 ADD PUSH2 0x694 JUMP JUMPDEST SWAP6 POP POP PUSH1 0x20 DUP7 ADD CALLDATALOAD PUSH8 0xFFFFFFFFFFFFFFFF DUP2 GT ISZERO PUSH2 0x898 JUMPI PUSH2 0x897 PUSH2 0x66E JUMP JUMPDEST JUMPDEST PUSH2 0x8A4 DUP9 DUP3 DUP10 ADD PUSH2 0x7C1 JUMP JUMPDEST SWAP5 POP POP PUSH1 0x40 PUSH2 0x8B5 DUP9 DUP3 DUP10 ADD PUSH2 0x694 JUMP JUMPDEST SWAP4 POP POP PUSH1 0x60 DUP7 ADD CALLDATALOAD PUSH8 0xFFFFFFFFFFFFFFFF DUP2 GT ISZERO PUSH2 0x8D6 JUMPI PUSH2 0x8D5 PUSH2 0x66E JUMP JUMPDEST JUMPDEST PUSH2 0x8E2 DUP9 DUP3 DUP10 ADD PUSH2 0x7C1 JUMP JUMPDEST SWAP3 POP POP PUSH1 0x80 PUSH2 0x8F3 DUP9 DUP3 DUP10 ADD PUSH2 0x838 JUMP JUMPDEST SWAP2 POP POP SWAP3 SWAP6 POP SWAP3 SWAP6 SWAP1 SWAP4 POP JUMP JUMPDEST PUSH1 0x0 PUSH1 0x20 DUP3 DUP5 SUB SLT ISZERO PUSH2 0x916 JUMPI PUSH2 0x915 PUSH2 0x669 JUMP JUMPDEST JUMPDEST PUSH1 0x0 PUSH2 0x924 DUP5 DUP3 DUP6 ADD PUSH2 0x694 JUMP JUMPDEST SWAP2 POP POP SWAP3 SWAP2 POP POP JUMP JUMPDEST PUSH1 0x0 DUP2 ISZERO ISZERO SWAP1 POP SWAP2 SWAP1 POP JUMP JUMPDEST PUSH2 0x942 DUP2 PUSH2 0x92D JUMP JUMPDEST DUP3 MSTORE POP POP JUMP JUMPDEST PUSH1 0x0 PUSH1 0x20 DUP3 ADD SWAP1 POP PUSH2 0x95D PUSH1 0x0 DUP4 ADD DUP5 PUSH2 0x939 JUMP JUMPDEST SWAP3 SWAP2 POP POP JUMP JUMPDEST PUSH2 0x96C DUP2 PUSH2 0x673 JUMP JUMPDEST DUP3 MSTORE POP POP JUMP JUMPDEST PUSH1 0x0 DUP2 MLOAD SWAP1 POP SWAP2 SWAP1 POP JUMP JUMPDEST PUSH1 0x0 DUP3 DUP3 MSTORE PUSH1 0x20 DUP3 ADD SWAP1 POP SWAP3 SWAP2 POP POP JUMP JUMPDEST PUSH1 0x0 JUMPDEST DUP4 DUP2 LT ISZERO PUSH2 0x9AC JUMPI DUP1 DUP3 ADD MLOAD DUP2 DUP5 ADD MSTORE PUSH1 0x20 DUP2 ADD SWAP1 POP PUSH2 0x991 JUMP JUMPDEST PUSH1 0x0 DUP5 DUP5 ADD MSTORE POP POP POP POP JUMP JUMPDEST PUSH1 0x0 PUSH2 0x9C3 DUP3 PUSH2 0x972 JUMP JUMPDEST PUSH2 0x9CD DUP2 DUP6 PUSH2 0x97D JUMP JUMPDEST SWAP4 POP PUSH2 0x9DD DUP2 DUP6 PUSH1 0x20 DUP7 ADD PUSH2 0x98E JUMP JUMPDEST PUSH2 0x9E6 DUP2 PUSH2 0x6B3 JUMP JUMPDEST DUP5 ADD SWAP2 POP POP SWAP3 SWAP2 POP POP JUMP JUMPDEST PUSH1 0x0 PUSH1 0x80 DUP3 ADD SWAP1 POP PUSH2 0xA06 PUSH1 0x0 DUP4 ADD DUP8 PUSH2 0x963 JUMP JUMPDEST PUSH2 0xA13 PUSH1 0x20 DUP4 ADD DUP7 PUSH2 0x963 JUMP JUMPDEST DUP2 DUP2 SUB PUSH1 0x40 DUP4 ADD MSTORE PUSH2 0xA25 DUP2 DUP6 PUSH2 0x9B8 JUMP JUMPDEST SWAP1 POP DUP2 DUP2 SUB PUSH1 0x60 DUP4 ADD MSTORE PUSH2 0xA39 DUP2 DUP5 PUSH2 0x9B8 JUMP JUMPDEST SWAP1 POP SWAP6 SWAP5 POP POP POP POP POP JUMP JUMPDEST PUSH32 0x4E487B7100000000000000000000000000000000000000000000000000000000 PUSH1 0x0 MSTORE PUSH1 0x22 PUSH1 0x4 MSTORE PUSH1 0x24 PUSH1 0x0 REVERT JUMPDEST PUSH1 0x0 PUSH1 0x2 DUP3 DIV SWAP1 POP PUSH1 0x1 DUP3 AND DUP1 PUSH2 0xA8B JUMPI PUSH1 0x7F DUP3 AND SWAP2 POP JUMPDEST PUSH1 0x20 DUP3 LT DUP2 SUB PUSH2 0xA9E JUMPI PUSH2 0xA9D PUSH2 0xA44 JUMP JUMPDEST JUMPDEST POP SWAP2 SWAP1 POP JUMP JUMPDEST PUSH1 0x0 DUP2 SWAP1 POP DUP2 PUSH1 0x0 MSTORE PUSH1 0x20 PUSH1 0x0 KECCAK256 SWAP1 POP SWAP2 SWAP1 POP JUMP JUMPDEST PUSH1 0x0 PUSH1 0x20 PUSH1 0x1F DUP4 ADD DIV SWAP1 POP SWAP2 SWAP1 POP JUMP JUMPDEST PUSH1 0x0 DUP3 DUP3 SHL SWAP1 POP SWAP3 SWAP2 POP POP JUMP JUMPDEST PUSH1 0x0 PUSH1 0x8 DUP4 MUL PUSH2 0xB06 PUSH32 0xFFFFFFFFFFFFFFFFFFFFFFFFFFFFFFFFFFFFFFFFFFFFFFFFFFFFFFFFFFFFFFFF DUP3 PUSH2 0xAC9 JUMP JUMPDEST PUSH2 0xB10 DUP7 DUP4 PUSH2 0xAC9 JUMP JUMPDEST SWAP6 POP DUP1 NOT DUP5 AND SWAP4 POP DUP1 DUP7 AND DUP5 OR SWAP3 POP POP POP SWAP4 SWAP3 POP POP POP JUMP JUMPDEST PUSH1 0x0 DUP2 SWAP1 POP SWAP2 SWAP1 POP JUMP JUMPDEST PUSH1 0x0 PUSH2 0xB4D PUSH2 0xB48 PUSH2 0xB43 DUP5 PUSH2 0x673 JUMP JUMPDEST PUSH2 0xB28 JUMP JUMPDEST PUSH2 0x673 JUMP JUMPDEST SWAP1 POP SWAP2 SWAP1 POP JUMP JUMPDEST PUSH1 0x0 DUP2 SWAP1 POP SWAP2 SWAP1 POP JUMP JUMPDEST PUSH2 0xB67 DUP4 PUSH2 0xB32 JUMP JUMPDEST PUSH2 0xB7B PUSH2 0xB73 DUP3 PUSH2 0xB54 JUMP JUMPDEST DUP5 DUP5 SLOAD PUSH2 0xAD6 JUMP JUMPDEST DUP3 SSTORE POP POP POP POP JUMP JUMPDEST PUSH1 0x0 SWAP1 JUMP JUMPDEST PUSH2 0xB90 PUSH2 0xB83 JUMP JUMPDEST PUSH2 0xB9B DUP2 DUP5 DUP5 PUSH2 0xB5E JUMP JUMPDEST POP POP POP JUMP JUMPDEST JUMPDEST DUP2 DUP2 LT ISZERO PUSH2 0xBBF JUMPI PUSH2 0xBB4 PUSH1 0x0 DUP3 PUSH2 0xB88 JUMP JUMPDEST PUSH1 0x1 DUP2 ADD SWAP1 POP PUSH2 0xBA1 JUMP JUMPDEST POP POP JUMP JUMPDEST PUSH1 0x1F DUP3 GT ISZERO PUSH2 0xC04 JUMPI PUSH2 0xBD5 DUP2 PUSH2 0xAA4 JUMP JUMPDEST PUSH2 0xBDE DUP5 PUSH2 0xAB9 JUMP JUMPDEST DUP2 ADD PUSH1 0x20 DUP6 LT ISZERO PUSH2 0xBED JUMPI DUP2 SWAP1 POP JUMPDEST PUSH2 0xC01 PUSH2 0xBF9 DUP6 PUSH2 0xAB9 JUMP JUMPDEST DUP4 ADD DUP3 PUSH2 0xBA0 JUMP JUMPDEST POP POP JUMPDEST POP POP POP JUMP JUMPDEST PUSH1 0x0 DUP3 DUP3 SHR SWAP1 POP SWAP3 SWAP2 POP POP JUMP JUMPDEST PUSH1 0x0 PUSH2 0xC27 PUSH1 0x0 NOT DUP5 PUSH1 0x8 MUL PUSH2 0xC09 JUMP JUMPDEST NOT DUP1 DUP4 AND SWAP2 POP POP SWAP3 SWAP2 POP POP JUMP JUMPDEST PUSH1 0x0 PUSH2 0xC40 DUP4 DUP4 PUSH2 0xC16 JUMP JUMPDEST SWAP2 POP DUP3 PUSH1 0x2 MUL DUP3 OR SWAP1 POP SWAP3 SWAP2 POP POP JUMP JUMPDEST PUSH2 0xC59 DUP3 PUSH2 0x972 JUMP JUMPDEST PUSH8 0xFFFFFFFFFFFFFFFF DUP2 GT ISZERO PUSH2 0xC72 JUMPI PUSH2 0xC71 PUSH2 0x6C4 JUMP JUMPDEST JUMPDEST PUSH2 0xC7C DUP3 SLOAD PUSH2 0xA73 JUMP JUMPDEST PUSH2 0xC87 DUP3 DUP3 DUP6 PUSH2 0xBC3 JUMP JUMPDEST PUSH1 0x0 PUSH1 0x20 SWAP1 POP PUSH1 0x1F DUP4 GT PUSH1 0x1 DUP2 EQ PUSH2 0xCBA JUMPI PUSH1 0x0 DUP5 ISZERO PUSH2 0xCA8 JUMPI DUP3 DUP8 ADD MLOAD SWAP1 POP JUMPDEST PUSH2 0xCB2 DUP6 DUP3 PUSH2 0xC34 JUMP JUMPDEST DUP7 SSTORE POP PUSH2 0xD1A JUMP JUMPDEST PUSH1 0x1F NOT DUP5 AND PUSH2 0xCC8 DUP7 PUSH2 0xAA4 JUMP JUMPDEST PUSH1 0x0 JUMPDEST DUP3 DUP2 LT ISZERO PUSH2 0xCF0 JUMPI DUP5 DUP10 ADD MLOAD DUP3 SSTORE PUSH1 0x1 DUP3 ADD SWAP2 POP PUSH1 0x20 DUP6 ADD SWAP5 POP PUSH1 0x20 DUP2 ADD SWAP1 POP PUSH2 0xCCB JUMP JUMPDEST DUP7 DUP4 LT ISZERO PUSH2 0xD0D JUMPI DUP5 DUP10 ADD MLOAD PUSH2 0xD09 PUSH1 0x1F DUP10 AND DUP3 PUSH2 0xC16 JUMP JUMPDEST DUP4 SSTORE POP JUMPDEST PUSH1 0x1 PUSH1 0x2 DUP9 MUL ADD DUP9 SSTORE POP POP POP JUMPDEST POP POP POP POP POP POP JUMP JUMPDEST PUSH1 0x0 PUSH2 0xD3D PUSH2 0xD38 PUSH2 0xD33 DUP5 PUSH2 0x7EF JUMP JUMPDEST PUSH2 0xB28 JUMP JUMPDEST PUSH2 0x7EF JUMP JUMPDEST SWAP1 POP SWAP2 SWAP1 POP JUMP JUMPDEST PUSH1 0x0 PUSH2 0xD4F DUP3 PUSH2 0xD22 JUMP JUMPDEST SWAP1 POP SWAP2 SWAP1 POP JUMP JUMPDEST PUSH1 0x0 PUSH2 0xD61 DUP3 PUSH2 0xD44 JUMP JUMPDEST SWAP1 POP SWAP2 SWAP1 POP JUMP JUMPDEST PUSH2 0xD71 DUP2 PUSH2 0xD56 JUMP JUMPDEST DUP3 MSTORE POP POP JUMP JUMPDEST PUSH1 0x0 PUSH1 0xC0 DUP3 ADD SWAP1 POP PUSH2 0xD8C PUSH1 0x0 DUP4 ADD DUP10 PUSH2 0x963 JUMP JUMPDEST PUSH2 0xD99 PUSH1 0x20 DUP4 ADD DUP9 PUSH2 0x963 JUMP JUMPDEST PUSH2 0xDA6 PUSH1 0x40 DUP4 ADD DUP8 PUSH2 0x963 JUMP JUMPDEST DUP2 DUP2 SUB PUSH1 0x60 DUP4 ADD MSTORE PUSH2 0xDB8 DUP2 DUP7 PUSH2 0x9B8 JUMP JUMPDEST SWAP1 POP DUP2 DUP2 SUB PUSH1 0x80 DUP4 ADD MSTORE PUSH2 0xDCC DUP2 DUP6 PUSH2 0x9B8 JUMP JUMPDEST SWAP1 POP PUSH2 0xDDB PUSH1 0xA0 DUP4 ADD DUP5 PUSH2 0xD68 JUMP JUMPDEST SWAP8 SWAP7 POP POP POP POP POP POP POP JUMP JUMPDEST PUSH32 0x4E487B7100000000000000000000000000000000000000000000000000000000 PUSH1 0x0 MSTORE PUSH1 0x32 PUSH1 0x4 MSTORE PUSH1 0x24 PUSH1 0x0 REVERT JUMPDEST PUSH1 0x0 PUSH2 0xE20 DUP3 PUSH2 0x7EF JUMP JUMPDEST SWAP1 POP SWAP2 SWAP1 POP JUMP JUMPDEST PUSH2 0xE30 DUP2 PUSH2 0xE15 JUMP JUMPDEST DUP3 MSTORE POP POP JUMP JUMPDEST PUSH1 0x0 PUSH1 0x40 DUP3 ADD SWAP1 POP PUSH2 0xE4B PUSH1 0x0 DUP4 ADD DUP6 PUSH2 0xE27 JUMP JUMPDEST PUSH2 0xE58 PUSH1 0x20 DUP4 ADD DUP5 PUSH2 0x963 JUMP JUMPDEST SWAP4 SWAP3 POP POP POP JUMP JUMPDEST PUSH1 0x0 DUP2 SWAP1 POP SWAP3 SWAP2 POP POP JUMP JUMPDEST POP JUMP JUMPDEST PUSH1 0x0 PUSH2 0xE7A PUSH1 0x0 DUP4 PUSH2 0xE5F JUMP JUMPDEST SWAP2 POP PUSH2 0xE85 DUP3 PUSH2 0xE6A JUMP JUMPDEST PUSH1 0x0 DUP3 ADD SWAP1 POP SWAP2 SWAP1 POP JUMP JUMPDEST PUSH1 0x0 PUSH2 0xE9B DUP3 PUSH2 0xE6D JUMP JUMPDEST SWAP2 POP DUP2 SWAP1 POP SWAP2 SWAP1 POP JUMP INVALID LOG2 PUSH5 0x6970667358 0x22 SLT KECCAK256 PUSH19 0x42B6F4E1CAB68D0F8394E6F6A5C8BDBE4B88B3 PUSH17 0xF40D7FD9C66FBC35326E6664736F6C6343 STOP ADDMOD SLT STOP CALLER "
				},
				"gasEstimates": {
					"creation": {
						"codeDepositCost": "760600",
						"executionCost": "792",
						"totalCost": "761392"
					},
					"external": {
						"addProduct(uint256,string,uint256,string,address)": "infinite",
						"buyProduct(uint256)": "infinite",
						"getProduct(uint256)": "infinite"
					}
				},
				"methodIdentifiers": {
					"addProduct(uint256,string,uint256,string,address)": "5c40465e",
					"buyProduct(uint256)": "8642269e",
					"getProduct(uint256)": "b9db15b4"
				}
			},
			"storageLayout": {
				"storage": [
					{
						"astId": 20,
						"contract": "contract/Tomatrack.sol:Tomatrack",
						"label": "productsOfId",
						"offset": 0,
						"slot": "0",
						"type": "t_mapping(t_uint256,t_array(t_struct(Product)14_storage)dyn_storage)"
					}
				],
				"types": {
					"t_address_payable": {
						"encoding": "inplace",
						"label": "address payable",
						"numberOfBytes": "20"
					},
					"t_array(t_struct(Product)14_storage)dyn_storage": {
						"base": "t_struct(Product)14_storage",
						"encoding": "dynamic_array",
						"label": "struct Tomatrack.Product[]",
						"numberOfBytes": "32"
					},
					"t_mapping(t_uint256,t_array(t_struct(Product)14_storage)dyn_storage)": {
						"encoding": "mapping",
						"key": "t_uint256",
						"label": "mapping(uint256 => struct Tomatrack.Product[])",
						"numberOfBytes": "32",
						"value": "t_array(t_struct(Product)14_storage)dyn_storage"
					},
					"t_string_storage": {
						"encoding": "bytes",
						"label": "string",
						"numberOfBytes": "32"
					},
					"t_struct(Product)14_storage": {
						"encoding": "inplace",
						"label": "struct Tomatrack.Product",
						"members": [
							{
								"astId": 3,
								"contract": "contract/Tomatrack.sol:Tomatrack",
								"label": "id",
								"offset": 0,
								"slot": "0",
								"type": "t_uint256"
							},
							{
								"astId": 5,
								"contract": "contract/Tomatrack.sol:Tomatrack",
								"label": "dateOfHarvest",
								"offset": 0,
								"slot": "1",
								"type": "t_string_storage"
							},
							{
								"astId": 7,
								"contract": "contract/Tomatrack.sol:Tomatrack",
								"label": "quantity",
								"offset": 0,
								"slot": "2",
								"type": "t_uint256"
							},
							{
								"astId": 9,
								"contract": "contract/Tomatrack.sol:Tomatrack",
								"label": "price",
								"offset": 0,
								"slot": "3",
								"type": "t_uint256"
							},
							{
								"astId": 11,
								"contract": "contract/Tomatrack.sol:Tomatrack",
								"label": "variety",
								"offset": 0,
								"slot": "4",
								"type": "t_string_storage"
							},
							{
								"astId": 13,
								"contract": "contract/Tomatrack.sol:Tomatrack",
								"label": "owner",
								"offset": 0,
								"slot": "5",
								"type": "t_address_payable"
							}
						],
						"numberOfBytes": "192"
					},
					"t_uint256": {
						"encoding": "inplace",
						"label": "uint256",
						"numberOfBytes": "32"
					}
				}
			},
			"userdoc": {
				"kind": "user",
				"methods": {},
				"version": 1
			}
		}
	}
}